:10E000000F8E0FFFC6FFD70071BF14C604D710C60E
:10E010001AD711D612867ECEE1779720DF21CEE186
:10E02000729732DF33CEE1F29723DF24863D9726C5
:10E030009729972C972F97354F9738973ACE01000D
:10E04000DF3BDF3D0ECEE2E1BDE28C20137D0038E8
:10E0500027257F003837C672BDE27ABDE296333B92
:10E06000CEE2FEBDE28C7D00382706CEE30EBDE297
:10E070008CCEE318BDE28CBDE21AC17227CFBDE29F
:10E08000D42506C16C276320EEBDE27A17CEE36388
:10E09000BDE28CC610D74181612502802780305FA8
:10E0A00018DF3F18BDE2ACCEE3FEBDE28C8610DE89
:10E0B0003FE600BDE2A2BDE29E084A26F4C67CBD52
:10E0C000E27ABDE29E8610DE3FE600C1202504C153
:10E0D0007F2502C62EBDE27A084A26EDBDE2967A79
:10E0E000004126BDBDE2967EE060CEE31CBDE28C21
:10E0F0002005C62EBDE27ABDE21AC15326F9BDE263
:10E100001AC139273FC13126EE8D49D73FC003D709
:10E11000408D41D7418D3DD742DE41D63FDB41DBCB
:10E1200042D73F8D2FE700DB3FD73F087A004026DC
:10E13000F28D21DB3F5C27BABDE296CEE44FBDE213
:10E140008C7EE060BDE21AC10A26F9CEE33BBDE257
:10E150008C7E1000BDE21AC1412502C007C03058B4
:10E1600058585817BDE21AC1412502C007C0301BDC
:10E170001639CEE4022003CEE40BBDE28CCEE415CA
:10E18000BDE28C30A602E601BDE2ACCEE41CBDE2ED
:10E190008C30EC03BDE2ACCEE421BDE28C30EC056A
:10E1A000BDE2ACCEE427BDE28C3018C30006BDE270
:10E1B000ACCEE42DBDE28C300918BDE2ACCEE43724
:10E1C000BDE28C30E60017BDE2A2CEE43FBDE28C9A
:10E1D0004949CEE449E600492502CA20BDE27A0851
:10E1E0008CE44F26F0CEE443BDE28C72FF380E7E05
:10E1F000E0607B40112704D612201E9612D63AC149
:10E200004027165CD73AC1302605C613BDE27ADE38
:10E210003DA7000818C43FDD3D3B3CD63A27FC0F24
:10E22000D63A5AD73A0EC1082604C6118D4CDE3BA9
:10E23000E6000818C43F18DF3B3839CE01408DDABC
:10E24000C1082718C10A2726C17F24F2C12025EE64
:10E250008C018827E98D23E7000820E28C01402704
:10E26000DD8D17C6208D1309C6088D0E20D08C01B8
:10E27000872601085FE7007EE2967B201127FBD707
:10E28000137C0039C10A26037F003939E6002705CF
:10E290008DE80820F739C60D8DE0C60A20DCC620BF
:10E2A00020D8378D0E8DD3338D0D20CE37168DF2BD
:10E2B0003320EF54545454C40FCB30C13A2502CB11
:10E2C0002739C17B2404C061C09F39C13A2404C0EE
:10E2D00030C0D039C1672408C061C09F250220EB3F
:10E2E0003954696E79206D6F6E69746F7220666F34
:10E2F0007220534243363330330D0A0D0A00302D5D
:10E30000663A44756D70206C3A4C6F6164002072FF
:10E310003A52657475726E00203E20006C0D0A50F2
:10E320006C656173652073656E6420746865205345
:10E3300031392066696C652E0D0A00204C6F6164CE
:10E34000696E67204F2E4B2E0D0A457865637574F4
:10E3500065207468652070726F6772616D2E0D0A9A
:10E360000D0A000D0A0D0A41646472207C202B30D6
:10E37000202B31202B32202B33202B34202B352007
:10E380002B36202B37202B38202B39202B61202BAC
:10E3900062202B63202B64202B65202B66207C20A1
:10E3A000303132333435363738396162636465660B
:10E3B0000D0A2D2D2D2D2D2B2D2D2D2D2D2D2D2DD2
:10E3C0002D2D2D2D2D2D2D2D2D2D2D2D2D2D2D2D7D
:10E3D0002D2D2D2D2D2D2D2D2D2D2D2D2D2D2D2D6D
:10E3E0002D2D2D2D2D2D2D2D2D2B2D2D2D2D2D2D5F
:10E3F0002D2D2D2D2D2D2D2D2D2D2D0D0A00207C7B
:10E4000020000D0A0D0A53776921000D0A0D0A54E8
:10E4100072617021000D0A413A423D002020583DB2
:10E4200000202050433D00202053503D00284375DC
:10E430007272656E743A002920204343523D005B9E
:10E440003131005D0D0A0D0A0048494E5A564349C4
:10E450006E76616C6964207265636F726420666FAA
:0AE46000726D61742E0D0A0D0A00A2
:10FFA0007EE0007EE0607EE21A7EE23B7EE27A7EC8
:10FFB000E28C7EE2967EE29E7EE2A27EE2AC7EE271
:07FFC000C27EE2CB7EE2D419
:10FFEE000020002300260029002C002F00320035AF
:02FFFE00E00021
:00000001FF
