:10E000000F8E0FFFC6FFD70071BF14C605D710C60D
:10E010001AD711D612867ECEE1779720DF21CEE186
:10E02000729732DF33CEE1F29723DF24863D9726C5
:10E030009729972C972F97354F9738973ACE01000D
:10E04000DF3BDF3D0ECEE2DEBDE28920137D0038EE
:10E0500027257F003837C672BDE277BDE293333B98
:10E06000CEE2FBBDE2897D00382706CEE30BBDE2A0
:10E0700089CEE315BDE289BDE21BC17227CFBDE2A7
:10E08000D12506C16C276320EEBDE27717CEE36091
:10E09000BDE289C610D74181612502802780305FAB
:10E0A00018DF3F18BDE2A9CEE3FBBDE2898610DE92
:10E0B0003FE600BDE29FBDE29B084A26F4C67CBD58
:10E0C000E277BDE29B8610DE3FE600C1202504C159
:10E0D0007F2502C62EBDE277084A26EDBDE2937A7F
:10E0E000004126BDBDE2937EE060CEE319BDE2892A
:10E0F0002005C62EBDE277BDE21BC15326F9BDE265
:10E100001BC139273FC13126EE8D49D73FC003D708
:10E11000408D41D7418D3DD742DE41D63FDB41DBCB
:10E1200042D73F8D2FE700DB3FD73F087A004026DC
:10E13000F28D21DB3F5C27BABDE293CEE44CBDE219
:10E14000897EE060BDE21BC10A26F9CEE338BDE25C
:10E15000897E1000BDE21BC1412502C007C03058B6
:10E1600058585817BDE21BC1412502C007C0301BDB
:10E170001639CEE3FF2003CEE408BDE289CEE412D7
:10E18000BDE28930A602E601BDE2A9CEE419BDE2F6
:10E190008930EC03BDE2A9CEE41EBDE28930EC0576
:10E1A000BDE2A9CEE424BDE2893018C30006BDE279
:10E1B000A9CEE42ABDE289300918BDE2A9CEE43433
:10E1C000BDE28930E60017BDE29FCEE43CBDE289A6
:10E1D0004949CEE446E600492502CA20BDE2770857
:10E1E0008CE44C26F0CEE440BDE28972FF380E7E0E
:10E1F000E0607B40112704D612201F9612D63AC148
:10E200004027175CD73AC1302605C613BDE277DE3A
:10E210003DA7000818C43F18DF3D3B3CD63A27FC19
:10E220005AD73AC1102604C6118D4CDE3BE60008D1
:10E2300018C43F18DF3B3839CE01408DDEC10827B6
:10E2400018C10A2726C17F24F2C12025EE8C01883F
:10E2500027E98D23E7000820E28C014027DD8D1798
:10E26000C6208D1309C6088D0E20D08C018726018B
:10E27000085FE7007EE2937B201127FBD7137C0029
:10E2800039C10A26037F003939E60027058DE808E1
:10E2900020F739C60D8DE0C60A20DCC62020D8370D
:10E2A0008D0E8DD3338D0D20CE37168DF23320EFAA
:10E2B00054545454C40FCB30C13A2502CB2739C132
:10E2C0007B2404C061C09F39C13A2404C030C0D04F
:10E2D00039C1672408C061C09F250220EB39546909
:10E2E0006E79206D6F6E69746F7220666F72205345
:10E2F0004243363330330D0A0D0A00302D663A445E
:10E30000756D70206C3A4C6F61640020723A5265F2
:10E310007475726E00203E20006C0D0A506C6561B1
:10E3200073652073656E64207468652053313920ED
:10E3300066696C652E0D0A00204C6F6164696E671A
:10E34000204F2E4B2E0D0A45786563757465207439
:10E3500068652070726F6772616D2E0D0A0D0A007C
:10E360000D0A0D0A41646472207C202B30202B3171
:10E37000202B32202B33202B34202B35202B362002
:10E380002B37202B38202B39202B61202B62202B80
:10E3900063202B64202B65202B66207C20303132BB
:10E3A000333435363738396162636465660D0A2D5A
:10E3B0002D2D2D2D2B2D2D2D2D2D2D2D2D2D2D2D8F
:10E3C0002D2D2D2D2D2D2D2D2D2D2D2D2D2D2D2D7D
:10E3D0002D2D2D2D2D2D2D2D2D2D2D2D2D2D2D2D6D
:10E3E0002D2D2D2D2D2D2B2D2D2D2D2D2D2D2D2D5F
:10E3F0002D2D2D2D2D2D2D2D0D0A00207C20000DD5
:10E400000A0D0A53776921000D0A0D0A54726170D2
:10E4100021000D0A413A423D002020583D002020B5
:10E4200050433D00202053503D00284375727265D3
:10E430006E743A002920204343523D005B31310085
:10E440005D0D0A0D0A0048494E5A5643496E7661E1
:10E450006C6964207265636F726420666F726D61AF
:07E46000742E0D0A0D0A00E5
:10FFA0007EE0007EE0607EE21B7EE2387EE2777ECD
:10FFB000E2897EE2937EE29B7EE29F7EE2A97EE280
:07FFC000BF7EE2C87EE2D122
:10FFEE000020002300260029002C002F00320035AF
:02FFFE00E00021
:00000001FF
