:10E000000F8E0FFFC6FFD70071BF14C605D710C60D
:10E010000AD711D612867ECEE1699720DF21CEE1A4
:10E02000649732DF33863D972397269729972C975D
:10E030002F97357F00380ECEE299BDE24420137D44
:10E04000003827257F003837C672BDE232BDE24E68
:10E05000333BCEE2B6BDE2447D00382706CEE2C6B1
:10E06000BDE244CEE2D0BDE244BDE1E3C17227CFC0
:10E07000BDE28C2506C16C276320EEBDE23217CECF
:10E08000E31BBDE244C610D73C8161250280278096
:10E09000305F18DF3A18BDE264CEE3B6BDE24486D5
:10E0A00010DE3AE600BDE25ABDE256084A26F4C642
:10E0B0007CBDE232BDE2568610DE3AE600C1202584
:10E0C00004C17F2502C62EBDE232084A26EDBDE21C
:10E0D0004E7A003C26BDBDE24E7EE052CEE2D4BD7B
:10E0E000E2442005C62EBDE232BDE1E3C15326F96C
:10E0F000BDE1E3C139273FC13126EE8D49D73AC092
:10E1000003D73B8D41D73C8D3DD73DDE3CD63ADB36
:10E110003CDB3DD73A8D2FE700DB3AD73A087A004F
:10E120003B26F28D21DB3A5C27BABDE24ECEE407F6
:10E13000BDE2447EE052BDE1E3C10A26F9CEE2F33E
:10E14000BDE2447E1000BDE1E3C1412502C007C02D
:10E15000305858585817BDE1E3C1412502C007C0E7
:10E16000301B1639CEE3BA2003CEE3C3BDE244CE62
:10E17000E3CDBDE24430A602E601BDE264CEE3D4C5
:10E18000BDE24430EC03BDE264CEE3D9BDE24430ED
:10E19000EC05BDE264CEE3DFBDE2443018C3000607
:10E1A000BDE264CEE3E5BDE244300918BDE264CED1
:10E1B000E3EFBDE24430E60017BDE25ACEE3F7BD1F
:10E1C000E2444949CEE401E600492502CA20BDE205
:10E1D00032088CE40726F0CEE3FBBDE24472FF3840
:10E1E0007EE0527BC01127FB7B40112704D6122012
:10E1F000F2D61239CE01008DEAC1082718C10A27CC
:10E2000026C17F24F2C12025EE8C014827E98D220A
:10E21000E7000820E28C010027DD8D16C6208D1254
:10E2200009C6088D0D20D08C01472601085FE70044
:10E23000201C7B201127FBD7137C0039C10A260341
:10E240007F003939E60027058DE80820F739C60D2B
:10E250008DE0C60A20DCC62020D8378D0E8DD33342
:10E260008D0D20CE37168DF23320EF54545454C404
:10E270000FCB30C13A2502CB2739C17B2404C061C2
:10E28000C09F39C13A2404C030C0D039C1672408C6
:10E29000C061C09F250220EB3954696E79206D6FF3
:10E2A0006E69746F7220666F72205342433633304A
:10E2B000330D0A0D0A00302D663A44756D70206CDE
:10E2C0003A4C6F61640020723A52657475726E0048
:10E2D000203E20006C0D0A506C65617365207365EB
:10E2E0006E6420746865205331392066696C652E30
:10E2F0000D0A00204C6F6164696E67204F2E4B2E13
:10E300000D0A4578656375746520746865207072C0
:10E310006F6772616D2E0D0A0D0A000D0A0D0A411C
:10E32000646472207C202B30202B31202B32202B58
:10E3300033202B34202B35202B36202B37202B3825
:10E34000202B39202B61202B62202B63202B642073
:10E350002B65202B66207C20303132333435363724
:10E3600038396162636465660D0A2D2D2D2D2D2BC4
:10E370002D2D2D2D2D2D2D2D2D2D2D2D2D2D2D2DCD
:10E380002D2D2D2D2D2D2D2D2D2D2D2D2D2D2D2DBD
:10E390002D2D2D2D2D2D2D2D2D2D2D2D2D2D2D2DAD
:10E3A0002D2B2D2D2D2D2D2D2D2D2D2D2D2D2D2D9F
:10E3B0002D2D2D0D0A00207C20000D0A0D0A53770B
:10E3C0006921000D0A0D0A5472617021000D0A4185
:10E3D0003A423D002020583D00202050433D00207F
:10E3E0002053503D002843757272656E743A0029BF
:10E3F00020204343523D005B3131005D0D0A0D0A80
:10E400000048494E5A5643496E76616C69642072E1
:10E4100065636F726420666F726D61742E0D0A0DF4
:02E420000A00F0
:10FFA0007EE0007EE0527EE1E37EE1F47EE2327E9E
:10FFB000E2447EE24E7EE2567EE25A7EE2647EE2D9
:07FFC0007A7EE2837EE28CF1
:10FFEE000020002300260029002C002F00320035AF
:02FFFE00E00021
:00000001FF
