:10E000000F8E0FFFC6FFD70071BF14C605D710C60D
:10E010001AD711D612867ECEE1779720DF21CEE186
:10E02000729732DF33CEE1F29723DF24863D9726C5
:10E030009729972C972F97354F9738973ACE01000D
:10E04000DF3BDF3D0ECEE2E2BDE28D20137D0038E6
:10E0500027257F003837C672BDE27BBDE297333B90
:10E06000CEE2FFBDE28D7D00382706CEE30FBDE294
:10E070008DCEE319BDE28DBDE21BC17227CFBDE29B
:10E08000D52506C16C276320EEBDE27B17CEE36485
:10E09000BDE28DC610D74181612502802780305FA7
:10E0A00018DF3F18BDE2ADCEE3FFBDE28D8610DE86
:10E0B0003FE600BDE2A3BDE29F084A26F4C67CBD50
:10E0C000E27BBDE29F8610DE3FE600C1202504C151
:10E0D0007F2502C62EBDE27B084A26EDBDE2977A77
:10E0E000004126BDBDE2977EE060CEE31DBDE28D1E
:10E0F0002005C62EBDE27BBDE21BC15326F9BDE261
:10E100001BC139273FC13126EE8D49D73FC003D708
:10E11000408D41D7418D3DD742DE41D63FDB41DBCB
:10E1200042D73F8D2FE700DB3FD73F087A004026DC
:10E13000F28D21DB3F5C27BABDE297CEE450BDE211
:10E140008D7EE060BDE21BC10A26F9CEE33CBDE254
:10E150008D7E1000BDE21BC1412502C007C03058B2
:10E1600058585817BDE21BC1412502C007C0301BDB
:10E170001639CEE4032003CEE40CBDE28DCEE416C6
:10E18000BDE28D30A602E601BDE2ADCEE41DBDE2EA
:10E190008D30EC03BDE2ADCEE422BDE28D30EC0566
:10E1A000BDE2ADCEE428BDE28D3018C30006BDE26D
:10E1B000ADCEE42EBDE28D300918BDE2ADCEE4381F
:10E1C000BDE28D30E60017BDE2A3CEE440BDE28D96
:10E1D0004949CEE44AE600492502CA20BDE27B084F
:10E1E0008CE45026F0CEE444BDE28D72FF380E7E02
:10E1F000E0607B40112704D612201F9612D63AC148
:10E200004027175CD73AC1302605C613BDE27BDE36
:10E210003DA7000818C43F18DF3D3B3CD63A27FC19
:10E220000FD63A5AD73A0EC1102604C6118D4CDECD
:10E230003BE6000818C43F18DF3B3839CE01408D5B
:10E24000DAC1082718C10A2726C17F24F2C1202578
:10E25000EE8C018827E98D23E7000820E28C01403D
:10E2600027DD8D17C6208D1309C6088D0E20D08C92
:10E2700001872601085FE7007EE2977B201127FBDC
:10E28000D7137C0039C10A26037F003939E60027FD
:10E29000058DE80820F739C60D8DE0C60A20DCC6DA
:10E2A0002020D8378D0E8DD3338D0D20CE37168D8F
:10E2B000F23320EF54545454C40FCB30C13A2502EA
:10E2C000CB2739C17B2404C061C09F39C13A2404E3
:10E2D000C030C0D039C1672408C061C09F2502206A
:10E2E000EB3954696E79206D6F6E69746F722066B8
:10E2F0006F7220534243363330330D0A0D0A00301B
:10E300002D663A44756D70206C3A4C6F6164002044
:10E31000723A52657475726E00203E20006C0D0AD0
:10E32000506C656173652073656E64207468652048
:10E330005331392066696C652E0D0A00204C6F61DF
:10E3400064696E67204F2E4B2E0D0A457865637504
:10E350007465207468652070726F6772616D2E0D30
:10E360000A0D0A000D0A0D0A41646472207C202BFC
:10E3700030202B31202B32202B33202B34202B35F7
:10E38000202B36202B37202B38202B39202B6120B7
:10E390002B62202B63202B64202B65202B66207C96
:10E3A0002030313233343536373839616263646551
:10E3B000660D0A2D2D2D2D2D2B2D2D2D2D2D2D2D99
:10E3C0002D2D2D2D2D2D2D2D2D2D2D2D2D2D2D2D7D
:10E3D0002D2D2D2D2D2D2D2D2D2D2D2D2D2D2D2D6D
:10E3E0002D2D2D2D2D2D2D2D2D2D2B2D2D2D2D2D5F
:10E3F0002D2D2D2D2D2D2D2D2D2D2D2D0D0A0020CA
:10E400007C20000D0A0D0A53776921000D0A0D0AC0
:10E410005472617021000D0A413A423D002020589B
:10E420003D00202050433D00202053503D00284314
:10E43000757272656E743A002920204343523D0084
:10E440005B3131005D0D0A0D0A0048494E5A5643B2
:10E45000496E76616C6964207265636F72642066D0
:0BE460006F726D61742E0D0A0D0A0032
:10FFA0007EE0007EE0607EE21B7EE23C7EE27B7EC5
:10FFB000E28D7EE2977EE29F7EE2A37EE2AD7EE26C
:07FFC000C37EE2CC7EE2D516
:10FFEE000020002300260029002C002F00320035AF
:02FFFE00E00021
:00000001FF
