S113100030DF80CE0400DF9A4F5FED009798C63E34
S1131010BDFFACBDFFA9CE0100BD12BA240A8300F6
S1131020002E08860C7E15087E1084DF8DDD9686E2
S113103004E60027044C0820F89799DE9ADC9AD33A
S113104098188C0DFD182424DD9ADC96ED00080810
S1131050D699E70008DF924FC003DD94DC8DDD9064
S1131060BD1473DE9A4F5FED007E100E860E7E1562
S113107008BD13832707C13A26060820077E100EF1
S11310804F7E1508BD1383272DBD136E24128601D0
S113109058DD8BBD1383C13D261F08BD13C020D16D
S11310A0EC00DDA4EC02DDA6EC04DDA8DF8DCE149B
S11310B0E8BD14AB24037E100E4F7E1508DFA2306A
S11310C0DFA0DEA2CC0172DD828D083CDE82EC0062
S11310D0380D398D50BD1383C13D2608088D46BD9A
S11310E0126D20F1C13C262208E600C13E26080804
S11310F08D33BD128E20DEC13D2608088D27BD121A
S11311008320D28D20BD127820CBC13E261608E65E
S113111000C13D2608088D0DBD12A420B88D06BD62
S1131120129920B1398D1CBD1383C12B2608088D5B
S113113012BD11B820F1C12D2608088D06BD11C1BC
S113114020E5398D28BD1383C12A2608088D1EBDCC
S113115011CA20F1C12F2608088D12BD11E720E520
S1131160C1252608088D06BD120320D939BD138375
S1131170BD12BA2402201DBD136E240A3C860158F8
S113118018EC0038200EC128261A08BD10D3C12936
S1131190261208393CDE8209098C0147250DED0031
S11311A0DF823839DEA035DEA20C3986067E1508CA
S11311B00808ED00DF8238393CDE82EC02E30020CF
S11311C0EF3CDE82EC02A30020E63CDE82A603E6CE
S11311D0013DDD9CEC013DDB9CD79CA600E6033D74
S11311E0DB9C17D69D20C93CDE828D37187D008597
S11311F0270D8C00002703C300014353C30001DE05
S11312008220AD3CDE828D1BDD8927137D0085277E
S113121004DC8793897D008627054353C30001DEE0
S113122082208DEC0027415FD785D786C610D79CD6
S1131230EC002A037C0086A8022A037C0085EC00CB
S11312402A054353C30001DD87EC022A054353C337
S11312500001184F5F18051859499387082403D3D0
S113126087097A009C26EE3986087E15083CDE82C2
S1131270EC02A3002739203D3CDE82EC02A3002DC2
S11312802E20323CDE82EC02A3002F2320273CDEFA
S113129082EC02A3002618201C3CDE82EC02A30090
S11312A02E0D20113CDE82EC02A3002C022006CC81
S11312B000017E11B04F5F7E11B04F5FDD9C979EA1
S11312C09784E600C12D26057C0084200BC12B27C2
S11312D007BDFFC12436201308E600BDFFC124402A
S11312E02009DD9CE600BDFFC12414C030D79FDC7B
S11312F09C0505D39C05D39E0825202B1020E3DCF8
S11313009C7D008427054353C300010D39188C804C
S1131310001826077D0084270220C786027E150850
S113132086047E15082A0C37C62DBDFFAC33435303
S1131330C300017F009CCE13667F009DA30025059A
S11313407C009D20F7E30037D69D27037C009C7D1D
S1131350009C2705CB30BDFFAC3308088C136E26E8
S1131360D8CB307EFFAC271003E80064000AE60007
S1131370BDFFBE240D17E601BDFFBE1624020C39C5
S1131380080D39E6002707C12022030820F539C1DA
S1131390222704C1272619173C08E6002714112622
S11313A0F83808E600112705BDFFAC20F5080D3913
S11313B00C39860A7E1508BDFFB57B073926F83936
S11313C0BD1383BD10BD24073CDE8BED0038398688
S11313D0047E150872018FBD13832737BD138F2533
S11313E01BBD10BD2511C13B2723C12C271CC13AAD
S11313F0272186047E15083CBD13253872018FBD54
S11314001383C13B2707C12C2609BD13B77F008F67
S11314100820C47D008F2703BDFFB27E1071BD1369
S1131420832731BD138F240AE600C13B262908BD5A
S11314301383BD136E2420860158DD8BDF8DBD130D
S1131440832706C13A2610DE8DBDFFA9CE0100BD5B
S113145013C0DE8D7E10714F7E1508BD1383270BDC
S1131460BD10BD24095D27037E10847E100E860402
S11314707E1508DC942733DC929390DD9CDC90D3BA
S113148094DD92DE90DC9404240EA60018D39C18FC
S1131490A70018939C18200DEC0018D39C18ED009D
S11314A018939C1808089C9226EE39EC0591A42602
S11314B02FD1A5262BEC074D271B91A626225D27AD
S11314C014D1A7261BEC094D270B91A826125D27E2
S11314D004D1A9260BE602EE0331313CDE8D3A3904
S11314E0EE0026C7DE8D0C3914F30513D47072692F
S11314F06E740014FE05141E696E70757400150672
S113150002145B69660000007D00392703BDFFB249
S1131510CE1529BDFFAF16CE15313AEE00BDFFAF93
S1131520BDFFB2DE80357E100E4552524F523A2036
S1131530001541154E15611574158D159915AF15C6
S1131540C353796E746178206572726F72004F753F
S113155074206F662072616E67652076616C7565B4
S113156000496C6C6567616C206578707265737393
S1131570696F6E0043616C63756C6174652073748C
S113158061636B206F766572666C6F77005A657263
S11315906F20446976696465005072696E742073C3
S11315A0746174656D656E74206572726F72004942
S11315B06E76616C6964206C696E65206E756D620F
S11315C06572004D656D6F72792073697A65206F5D
S11315D07665720036373CCE160ABDFFAFDC9CBD83
S11315E0FFBBCE160FBDFFAFDC9EBDFFBBCE1615F5
S11315F0BDFFAFDCA0BDFFBBCE161BBDFFAFDCA2A1
S1131600BDFFBBBDFFB2383332395552303D0020E7
S11316105552313D00205552323D00205552333D44
S104162000C5
S9030000FC
