S113100030DF80CE0400DF9A4F5FED009798979F02
S113101097A0CE02C2ED0008088C02F626F7CE0295
S113102050DFA172019CC63EBDFFACBDFFA9CE013D
S113103040BD1365240A8300002E08860C7E16E149
S11310407E10A9DF8DDD968604E60027044C082077
S1131050F89799DE9ADC9AD398188C0DFD182424FD
S1131060DD9ADC96ED000808D699E70008DF924F78
S1131070C003DD94DC8DDD90BD15FADE9A4F5FED83
S1131080007E1023860E7E16E1BD142E270BC13A76
S113109026030820144F7E16E17D009C2608DE9D61
S11310A0E6023ADF9D397E1023BD142E27EBBD14D2
S11310B0192412860258DD8BBD142EC13D26240846
S11310C0BD146B20C4EC00DDABEC02DDADEC04DD43
S11310D0AFDF8D7D009C2705CE166F2003CE168BC7
S11310E0BD16324F7E16E1DFA930DFA7DEA9CC02A0
S11310F028DD828D083CDE82EC00380D398D50BD30
S1131100142EC13D2608088D46BD131820F1C13C9C
S1131110262208E600C13E2608088D33BD13392077
S1131120DEC13D2608088D27BD132E20D28D20BD9B
S1131130132320CBC13E261608E600C13D2608082D
S11311408D0DBD134F20B88D06BD134420B1398DCC
S11311501CBD142EC12B2608088D12BD11E220F1EE
S1131160C12D2608088D06BD11EB20E5398D28BD5B
S1131170142EC12A2608088D1EBD11F420F1C12F9A
S11311802608088D12BD121120E5C1252608088DF8
S113119006BD122A20D939BD142EBD1365240220A0
S11311A01DBD1419240A3C86025818EC0038200E80
S11311B0C128261A08BD10FDC129261208393CDEB3
S11311C08209098C01FE250DED00DF823839DEA786
S11311D035DEA90C3986067E16E10808ED00DF82AB
S11311E038393CDE82EC02E30020EF3CDE82EC0284
S11311F0A30020E63CDE82A603E6013DDDA3EC016C
S11312003DDBA3D7A3A600E6033DDBA317D6A420AA
S1131210C97D009F267A3CDE828D2B187D008527B0
S1131220054353C30001DE8220B07D009F267E3C2F
S1131230DE828D12DD89270A7D008627054353C38C
S11312400001DE822094EC0027415FD785D786C653
S113125010D7A3EC022A037C0086A8002A037C0092
S113126085EC002A054353C30001DD87EC022A05FF
S11312704353C30001184F5F180518594993870851
S11312802403D387097A00A326EE3986087E16E163
S11312903CDE828D39187D0085270D8C00002703E4
S11312A0C300014353C30001DE827E11DA3CDE82B7
S11312B08D1CDD8927137D00852704DC8793897DB8
S11312C0008627054353C30001DE827E11DAEC0059
S11312D027415FD785D786C610D7A3EC002A037CA5
S11312E00086A8022A037C0085EC002A054353C328
S11312F00001DD87EC022A054353C30001184F5F48
S113130018051859499387082403D387097A00A339
S113131026EE3986087E16E13CDE82EC02A3002725
S113132039203D3CDE82EC02A3002D2E20323CDE2F
S113133082EC02A3002F2320273CDE82EC02A300D0
S11313402618201C3CDE82EC02A3002E0D20113C4A
S1131350DE82EC02A3002C022006CC00017E11DA0E
S11313604F5F7E11DA4F5FDDA397A59784E600C136
S11313702D26057C0084200BC12B2707BDFFC1242B
S113138036201308E600BDFFC124402009DDA3E692
S113139000BDFFC12414C030D7A6DCA30505D3A328
S11313A005D3A50825202B1020E3DCA37D0084278A
S11313B0054353C300010D39188C80001826077D9E
S11313C00084270220C786027E16E186047E16E189
S11313D02A0C37C62DBDFFAC334353C300017F0035
S11313E0A3CE14117F00A4A30025057C00A420F73C
S11313F0E30037D6A427037C00A37D00A32705CBF5
S113140030BDFFAC3308088C141926D8CB307EFFCE
S1131410AC271003E80064000AE600BDFFBE240DFB
S113142017E601BDFFBE1624020C39080D39E6008B
S11314302707C12022030820F539C1222704C12728
S11314402619173C08E60027141126F83808E60088
S1131450112705BDFFAC20F5080D390C39860A7E2D
S113146016E1BDFFB57B073926F839BD142EBD1032
S1131470E724073CDE8BED00383986047E16E1EC68
S113148000270F189C961827072E07E6023A20EF2C
S11314900D390C39CE02C24F5FED0008088C02F6FC
S11314A026F77F009CCE0400DF9DEC002708080887
S11314B008BD10A920F27E1023CE0400EC002711F1
S11314C03CBD13D038080808BDFFAFBDFFB20820EB
S11314D0EB7E102372018FBD142E2737BD143A25DD
S11314E01BBD10E72511C13B2723C12C271CC13A82
S11314F0272186047E16E13CBD13D03872018FBDCE
S1131500142EC13B2707C12C2609BD14627F008F0E
S11315100820C47D008F2703BDFFB27E1089BD144F
S11315202E2731BD143A240AE600C13B262908BD02
S1131530142EBD14192420860258DD8BDF8DBD14B2
S11315402E2706C13A2610DE8DBDFFA9CE0140BD6F
S1131550146BDE8D7E10894F7E16E1BD142E270B91
S1131560BD10E724095D27037E10A97E1099860427
S11315707E16E17201A0BD142E273FBD10E7243E64
S11315802B41DD967D00A0271718DEA18C022827A9
S11315903C0909ED00DC9D0909ED00DFA17F00A0F5
S11315A0DE9DEC00189C96182503CE0400BD147F24
S11315B02416DF9D0808087E10A94F7E16E18604D4
S11315C07E16E1860C7E16E186107E16E186127E7A
S11315D016E1DEA18C02502710EC00DD9D0808EC1A
S11315E0000808DFA1187E108986147E16E17F00AA
S11315F09F7E108972019F7E1089DC942733DC92D0
S11316009390DDA3DC90D394DD92DE90DC940424EB
S11316100EA60018D3A318A7001893A318200DEC46
S11316200018D3A318ED001893A31808089C922659
S1131630EE39EC0591AB262FD1AC262BEC074D27C8
S11316401B91AD26225D2714D1AE261BEC094D2734
S11316500B91AF26125D2704D1B0260BE602EE03F0
S113166031313CDE8D3A39EE0026C7DE8D0C391659
S11316707803149472756E0016810310036E6577F7
S113168000168B0414B96C6973740016960514D48F
S11316907072696E740016A105151E696E707574FA
S11316A00016A902155B69660016B3041576676F08
S11316B0746F0016BE051573676F7375620016C9E3
S11316C00615D272657475726E16D40515EE7472B1
S11316D0756E630016DF0515F4666C6F6F7200009B
S11316E0007D00392703BDFFB2CE1714BDFFAF162E
S11316F0CE17203AEE00BDFFAF7D009C260DCE171D
S11317001BBDFFAFDE9DEC00BD13D0BDFFB2DE807C
S1131710357E10234F6F707321200020696E2000E6
S113172017361743175617691782178E17A417B859
S113173017C917DF17F953796E74617820657272CF
S11317406F72004F7574206F662072616E6765203A
S113175076616C756500496C6C6567616C206578B1
S11317607072657373696F6E0043616C63756C614D
S1131770746520737461636B206F766572666C6F39
S113178077005A65726F2044697669646500507207
S1131790696E742073746174656D656E742065720E
S11317A0726F7200496E76616C6964206C696E6553
S11317B0206E756D626572004D656D6F7279207370
S11317C0697A65206F76657200556E646566696E28
S11317D06564206C696E65206E756D626572005378
S11317E07562726F7574696E6520737461636B20C2
S11317F06F766572666C6F770052657475726E20D1
S1131800776974686F757420676F73756200363713
S11318103CCE1844BDFFAFDCA3BDFFBBCE1849BD11
S1131820FFAFDCA5BDFFBBCE184FBDFFAFDCA7BD2E
S1131830FFBBCE1855BDFFAFDCA9BDFFBBBDFFB2DA
S1131840383332395552303D00205552313D002055
S10E18505552323D00205552333D003C
S9030000FC
