S113100030DF80C63EBDFFACBDFFA9CE01007E101F
S113101024BD13232707C13A26060820077E1003A0
S11310204F7E1470BD1323272DBD130E2412860189
S113103058DD8BBD1323C13D261F08BD136020D18D
S1131040EC00DD98EC02DD9AEC04DD9CDF8DCE141F
S113105050BD141324037E10034F7E1470DF9630AA
S1131060DF94DE96CC0172DD828D083CDE82EC00DA
S1131070380D398D50BD1323C13D2608088D46BD5A
S1131080120D20F1C13C262208E600C13E260808C4
S11310908D33BD122E20DEC13D2608088D27BD12DA
S11310A02320D28D20BD121820CBC13E261608E67F
S11310B000C13D2608088D0DBD124420B88D06BD23
S11310C0123920B1398D1CBD1323C12B2608088D7C
S11310D012BD115820F1C12D2608088D06BD1161DD
S11310E020E5398D28BD1323C12A2608088D1EBD8D
S11310F0116A20F1C12F2608088D12BD118720E541
S1131100C1252608088D06BD11A320D939BD132396
S1131110BD125A2402201DBD130E240A3C86015818
S113112018EC0038200EC128261A08BD1073C129F6
S1131130261208393CDE8209098C0147250DED0091
S1131140DF823839DE9435DE960C3986067E1470DB
S11311500808ED00DF8238393CDE82EC02E300202F
S1131160EF3CDE82EC02A30020E63CDE82A603E62E
S1131170013DDD90EC013DDB90D790A600E6033DF8
S1131180DB9017D69120C93CDE828D37187D00850F
S1131190270D8C00002703C300014353C30001DE65
S11311A08220AD3CDE828D1BDD8927137D008527DF
S11311B004DC8793897D008627054353C30001DE41
S11311C082208DEC0027415FD785D786C610D79043
S11311D0EC002A037C0086A8022A037C0085EC002C
S11311E02A054353C30001DD87EC022A054353C398
S11311F00001184F5F18051859499387082403D331
S113120087097A009026EE3986087E14703CDE82C7
S1131210EC02A3002739203D3CDE82EC02A3002D22
S11312202E20323CDE82EC02A3002F2320273CDE5A
S113123082EC02A3002618201C3CDE82EC02A300F0
S11312402E0D20113CDE82EC02A3002C022006CCE1
S113125000017E11504F5F7E11504F5FDD909792D9
S11312609784E600C12D26057C0084200BC12B2722
S113127007BDFFC12436201308E600BDFFC124408A
S11312802009DD90E600BDFFC12414C030D793DCF3
S1131290900505D39005D3920825202B1020E3DC7C
S11312A0907D008427054353C300010D39188C80B9
S11312B0001826077D0084270220C786027E14704A
S11312C086047E14702A0C37C62DBDFFAC334353FD
S11312D0C300017F0090CE13067F0091A300250573
S11312E07C009120F7E30037D69127037C00907DA2
S11312F000902705CB30BDFFAC3308088C130E26B5
S1131300D8CB307EFFAC271003E80064000AE60067
S1131310BDFFBE240D17E601BDFFBE1624020C3925
S1131320080D39E6002707C12022030820F539C13A
S1131330222704C1272619173C08E6002714112682
S1131340F83808E600112705BDFFAC20F5080D3973
S11313500C39860A7E1470BDFFB57B073926F8392F
S1131360BD1323BD105D24073CDE8BED00383986A8
S1131370047E147072018FBD13232737BD132F25EC
S11313801BBD105D2511C13B2723C12C271CC13A6D
S1131390272186047E14703CBD12C53872018FBDAE
S11313A01323C13B2707C12C2609BD13577F008F88
S11313B00820C47D008F2703BDFFB27E1011BD132A
S11313C0232731BD132F240AE600C13B262908BD7B
S11313D01323BD130E2420860158DD8BDF8DBD132E
S11313E0232706C13A2610DE8DBDFFA9CE0100BD1C
S11313F01360DE8D7E10114F7E1470BD1323270BF6
S1131400BD105D24095D27037E10247E100386042D
S11314107E1470EC059198262FD199262BEC074D5C
S1131420271B919A26225D2714D19B261BEC094D7C
S1131430270B919C26125D2704D19D260BE602EE14
S11314400331313CDE8D3A39EE0026C7DE8D0C398E
S1131450145B0513747072696E740014660513BE10
S1131460696E70757400146E0213FB6966000000E7
S11314707D00392703BDFFB2CE1491BDFFAF16CE58
S113148014993AEE00BDFFAFBDFFB2DE80357E1089
S1131490034552524F523A200014A514B214C514F5
S11314A0D814F114FD53796E746178206572726FEB
S11314B072004F7574206F662072616E67652076C6
S11314C0616C756500496C6C6567616C206578704A
S11314D072657373696F6E0043616C63756C6174DC
S11314E06520737461636B206F766572666C6F77C9
S11314F0005A65726F2044697669646500507269A8
S11315006E742073746174656D656E742065727297
S11315106F720036373CCE1549BDFFAFDC90BDFF7E
S1131520BBCE154EBDFFAFDC92BDFFBBCE1554BD87
S1131530FFAFDC94BDFFBBCE155ABDFFAFDC96BD3B
S1131540FFBBBDFFB2383332395552303D00205510
S113155052313D00205552323D00205552333D005A
S9030000FC
