S113100030DF80CE0400DF9A4F5FED009798979F02
S113101097A0CE02C2ED0008088C02F626F7CC0495
S113102002DDA3CC09FF04DDA5CE0250DFA1DC095B
S113103027FCDDA772019CC63EBDFFACBDFFA9CE57
S11310400140BD14AA240A8300002E08860C7E18D1
S1131050CA7E118ADF8DDD96BD15732602201BDE44
S11310608D8604E60027044C0820F89799CE0400E6
S1131070BD15D7DF9D24297E1100CE0400BD15D7F0
S1131080241BDF92E602D7993ADF90DC9A9390C34F
S11310900002DD94BD179EDC9A9398DD9A7E115868
S11310A08300002722DC9AD3988D48DD9ADF90D6FE
S11310B0993ADF92DC9A9390C30002DD94BD179EA7
S11310C0DE9D8D167E1158DC9AD3988D26DD9A8D7F
S11310D009DE9A4F5FED007E1158DC96ED0008089A
S11310E0D699E70008DF924FC003DD94DC8DDD90D4
S11310F07E179E188C0DFD18240139860E7E18CAA1
S11311009699A0022B2D2726E6023ADF90164FDD92
S1131110AB3ADF92DC9A9390C30002DD94DC9AD35D
S1131120AB8DD0DD9ABD179EDE9D8DAE202A8DAA93
S11311307E1034E6023ADF9016504FDDAB1893ABC5
S1131140DD92DC9A9390C30002DD94BD179EDC9A75
S113115093ABDD9ADE9D8D82DC9AC30002DDA3CCC5
S11311600DFF93A304DDA57E1034BD1573270BC1B9
S11311703A26030820144F7E18CA7D009C2608DEF8
S11311809DE6023ADF9D397E1034BD157327EBC10D
S113119040261BE601C128264A0808BD11EC244755
S11311A037E600C129263C3308BD15B02008BD151B
S11311B05E2412860258DD8BBD1573C13D262408BA
S11311C0BD15C320A5EC00DDB1EC02DDB3EC04DDFC
S11311D0B5DF8D7D009C2705CE184C2003CE186802
S11311E0BD180F4F7E18CA86047E18CADFAF30DFE1
S11311F0ADDEAFCC0228DD828D083CDE82EC003807
S11312000D398D50BD1573C13D2608088D46BD149A
S11312105D20F1C13C262208E600C13E2608088D67
S113122033BD147E20DEC13D2608088D27BD14730E
S113123020D28D20BD146820CBC13E261608E600BE
S1131240C13D2608088D0DBD149420B88D06BD142B
S11312508920B1398D1CBD1573C12B2608088D1248
S1131260BD132720F1C12D2608088D06BD1330209B
S1131270E5398D28BD1573C12A2608088D1EBD13B6
S11312803920F1C12F2608088D12BD135620E5C15F
S1131290252608088D06BD136F20D939BD1573BDE9
S11312A014AA24022059C1402622E601C128266638
S11312B00808BD1202C129265D3CDE82EC00080844
S11312C0DF82BD15B018EC0038082033BD155E244C
S11312D00A3C86025818EC00382024EC00DDB1ECFE
S11312E002DDB3EC04DDB5DF8DCE18BEBD180FE60C
S11312F000C128261A08BD1202C129261208393C49
S1131300DE8209098C01FE2511ED00DF823839DE09
S1131310AD35DEAF0C394F7E18CA86067E18CA0872
S113132008ED00DF8238393CDE82EC02E30020EF76
S11313303CDE82EC02A30020E63CDE82A603E6014A
S11313403DDDA9EC013DDBA9D7A9A600E6033DDB01
S1131350A917D6AA20C97D009F267A3CDE828D2B50
S1131360187D008527054353C30001DE8220B07D2C
S1131370009F267E3CDE828D12DD89270A7D008651
S113138027054353C30001DE822094EC0027415F0C
S1131390D785D786C610D7A9EC022A037C0086A875
S11313A0002A037C0085EC002A054353C30001DDB9
S11313B087EC022A054353C30001184F5F18051830
S11313C059499387082403D387097A00A926EE395B
S11313D086087E18CA3CDE828D39187D0085270D6B
S11313E08C00002703C300014353C30001DE827E47
S11313F0131F3CDE828D1CDD8927137D00852704A5
S1131400DC8793897D008627054353C30001DE8270
S11314107E131FEC0027415FD785D786C610D7A956
S1131420EC002A037C0086A8022A037C0085EC00D9
S11314302A054353C30001DD87EC022A054353C345
S11314400001184F5F18051859499387082403D3DE
S113145087097A00A926EE3986087E18CA3CDE82FE
S1131460EC02A3002739203D3CDE82EC02A3002DD0
S11314702E20323CDE82EC02A3002F2320273CDE08
S113148082EC02A3002618201C3CDE82EC02A3009E
S11314902E0D20113CDE82EC02A3002C022006CC8F
S11314A000017E131F4F5F7E131F4F5FDDA997ABB3
S11314B09784E600C12D26057C0084200BC12B27D0
S11314C007BDFFC12436201308E600BDFFC1244038
S11314D02009DDA9E600BDFFC12414C030D7ACDC6F
S11314E0A90505D3A905D3AB0825202B1020E3DCDF
S11314F0A97D008427054353C300010D39188C804E
S1131500001826077D0084270220C786027E18CA99
S113151086047E18CA2A0C37C62DBDFFAC3343534C
S1131520C300017F00A9CE15567F00AAA30025059C
S11315307C00AA20F7E30037D6AA27037C00A97D04
S113154000A92705CB30BDFFAC3308088C155E26F7
S1131550D8CB307EFFAC271003E80064000AE60015
S1131560BDFFBE240D17E601BDFFBE1624020C39D3
S1131570080D39E6002707C12022030820F539C1E8
S1131580222704C1272619173C08E6002714112630
S1131590F83808E600112705BDFFAC20F5080D3921
S11315A00C39860A7E18CABDFFB57B073926F8397F
S11315B0189CA522091805D3A3394F7E18CA86168C
S11315C07E18CABD1573BD11EC24073CDE8BED00FB
S11315D0383986047E18CAEC00270F189C96182701
S11315E0072E07E6023A20EF0D390C39DC0927FCF7
S11315F0DDA7CE02C24F5FED0008088C02F626F785
S11316007F009CCE0400DF9DEC002708080808BD7D
S1131610118A20F27E1034CE0400EC0027113CBD68
S1131620151538080808BDFFAFBDFFB20820EB7ED2
S1131630103472018FBD15732737BD157F251BBD6F
S113164011EC2511C13B2723C12C271CC13A2721AA
S113165086047E18CA3CBD15153872018FBD1573FA
S1131660C13B2707C12C2609BD15A77F008F082081
S1131670C47D008F2703BDFFB27E116ABD15732799
S113168031BD157F240AE600C13B262908BD157328
S1131690BD155E2420860258DD8BDF8DBD157327B2
S11316A006C13A2610DE8DBDFFA9CE0140BD15C38B
S11316B0DE8D7E116A4F7E18CABD1573270BBD11CE
S11316C0EC24095D27037E118A7E117A86047E1834
S11316D0CA7201A0BD1573273FBD11EC243E2B41F6
S11316E0DD967D00A0271718DEA18C0228273C096F
S11316F009ED00DC9D0909ED00DFA17F00A0DE9D5E
S1131700EC00189C96182503CE0400BD15D72416AA
S1131710DF9D0808087E118A4F7E18CA86047E1849
S1131720CA860C7E18CA86107E18CA86127E18CA0B
S1131730DEA18C02502710EC00DD9D0808EC0008A7
S113174008DFA1187E116A86147E18CA7F009F7E66
S1131750116A72019F7E116AD6A754D6A856D8A7DB
S1131760D7A756D8A8D7A81798A797A7847FBD123C
S1131770FFBD1202C129261D3CDE82EC002F1AC3D4
S11317800001ED00DF82D69F377F009FBD136F33CA
S1131790D79F3808394F7E18CA86027E18CADC944F
S11317A0270ADC90939227042403203139DDA9DC35
S11317B090D394DD92DE90DC9404240EA60018935A
S11317C0A918A70018D3A918200DEC001893A9187C
S11317D0ED0018D3A91808089C9226EE39DC9293E0
S11317E090DDA9DC90D39418DC9404240F09A6009E
S11317F018D3A918A7001893A918200E0909EC00FA
S113180018D3A918ED001893A9189C9026EE39EC6A
S11318100591B1262FD1B2262BEC074D271B91B38E
S113182026225D2714D1B4261BEC094D270B91B554
S113183026125D2704D1B6260BE602EE0331313CB5
S1131840DE8D3A39EE0026C7DE8D0C3918550315A6
S1131850EC72756E00185E0310036E6577001868ED
S11318600416176C69737400187305163270726964
S11318706E7400187E05167C696E70757400188687
S11318800216B969660018900416D4676F746F0065
S1131890189B0516D1676F7375620018A60617307A
S11318A072657475726E18B105174C7472756E6337
S11318B00018BC051752666C6F6F7200000018C8E0
S11318C0041758726E64280000007D00392703BD98
S11318D0FFB2CE18FDBDFFAF16CE19093AEE00BD1A
S11318E0FFAF7D009C260DCE1904BDFFAFDE9DEC3D
S11318F000BD1515BDFFB2DE80357E10344F6F700C
S11319007321200020696E20001921192E19411914
S113191054196D1979198F19A319B419CA19E4192D
S1131920F953796E746178206572726F72004F7525
S113193074206F662072616E67652076616C7565D0
S113194000496C6C6567616C2065787072657373AF
S1131950696F6E0043616C63756C617465207374A8
S113196061636B206F766572666C6F77005A65727F
S11319706F20446976696465005072696E742073DF
S1131980746174656D656E74206572726F7200495E
S11319906E76616C6964206C696E65206E756D622B
S11319A06572004D656D6F72792073697A65206F79
S11319B076657200556E646566696E6564206C694F
S11319C06E65206E756D62657200537562726F7517
S11319D074696E6520737461636B206F76657266DB
S11319E06C6F770052657475726E20776974686FD6
S11319F0757420676F7375620053756273637269DF
S1131A007074206973206F7574206F662072616E24
S1131A1067650036373CCE1A49BDFFAFDCA9BDFF70
S1131A20BBCE1A4EBDFFAFDCABBDFFBBCE1A54BD5F
S1131A30FFAFDCADBDFFBBCE1A5ABDFFAFDCAFBDFF
S1131A40FFBBBDFFB2383332395552303D0020550B
S1131A5052313D00205552323D00205552333D0055
S9030000FC
