S113100030DF80CE1A3FBDFFAFCE1A4ABDFFAFCE50
S11310100400DF9A4F5FED009798CE02C2ED0008FE
S1131020088C02F626F7CC0402DDA3CC09FF04DD0C
S1131030A5DC0927FCDDA7CE0250DFA14F979F97BF
S1131040A0CE1A5CBDFFAF72019CC63EBDFFACBD15
S1131050FFA9CE0140BD14C1240A8300002E0886D6
S11310600C7E18F67E119DDF8DDD96BD158A260255
S1131070201BDE8D8604E60027044C0820F897998F
S1131080CE0400BD15EEDF9D24297E1113CE04008D
S1131090BD15EE241BDF92E602D7993ADF90DC9A65
S11310A09390C30002DD94BD17C1DC9A9398DD9A36
S11310B07E116B8300002722DC9AD3988D48DD9A39
S11310C0DF90D6993ADF92DC9A9390C30002DD94C4
S11310D0BD17C1DE9D8D167E116BDC9AD3988D26CB
S11310E0DD9A8D09DE9A4F5FED007E116BDC96ED83
S11310F0000808D699E70008DF924FC003DD94DCAE
S11311008DDD907E17C1188C0DFD18240139860ED3
S11311107E18F69699A0022B2D2726E6023ADF9038
S1131120164FDDAB3ADF92DC9A9390C30002DD9454
S1131130DC9AD3AB8DD0DD9ABD17C1DE9D8DAE2078
S11311402A8DAA7E1047E6023ADF9016504FDDAB97
S11311501893ABDD92DC9A9390C30002DD94BD1723
S1131160C1DC9A93ABDD9ADE9D8D82DC9AC30002CA
S1131170DDA3CC0DFF93A304DDA57E1047BD158A26
S1131180270BC13A26030820144F7E18F67D009CD5
S11311902608DE9DE6023ADF9D397E1037BD158AAA
S11311A027EBC12727E7C140261BE601C128264AB1
S11311B00808BD1203244737E600C129263C33083A
S11311C0BD15C72008BD15752412860258DD8BBDD8
S11311D0158AC13D262408BD15DA20A1EC00DDB135
S11311E0EC02DDB3EC04DDB5DF8D7D009C2705CE7C
S11311F0186F2003CE188BBD18324F7E18F6860464
S11312007E18F6DFAF30DFADDEAFCC0228DD828D95
S1131210083CDE82EC00380D398D50BD158AC13D85
S11312202608088D46BD147420F1C13C262208E628
S113123000C13E2608088D33BD149520DEC13D262D
S113124008088D27BD148A20D28D20BD147F20CBA1
S1131250C13E261608E600C13D2608088D0DBD14C2
S1131260AB20B88D06BD14A020B1398D1CBD158AE4
S1131270C12B2608088D12BD133E20F1C12D26086E
S1131280088D06BD134720E5398D28BD158AC12A6E
S11312902608088D1EBD135020F1C12F2608088D85
S11312A012BD136D20E5C1252608088D06BD1386E1
S11312B020D939BD158ABD14C124022059C1402644
S11312C022E601C12826660808BD1219C129265D37
S11312D03CDE82EC000808DF82BD15C718EC00383C
S11312E0082033BD1575240A3C86025818EC0038D2
S11312F02024EC00DDB1EC02DDB3EC04DDB5DF8DC0
S1131300CE18EABD1832E600C128261A08BD121903
S1131310C129261208393CDE8209098C01FE2511F7
S1131320ED00DF823839DEAD35DEAF0C394F7E1883
S1131330F686067E18F60808ED00DF8238393CDEB2
S113134082EC02E30020EF3CDE82EC02A30020E604
S11313503CDE82A603E6013DDDA9EC013DDBA9D715
S1131360A9A600E6033DDBA917D6AA20C97D009FE4
S1131370267A3CDE828D2B187D008527054353C3D6
S11313800001DE8220B07D009F267E3CDE828D122D
S1131390DD89270A7D008627054353C30001DE82C9
S11313A02094EC0027415FD785D786C610D7A9ECD7
S11313B0022A037C0086A8002A037C0085EC002A0C
S11313C0054353C30001DD87EC022A054353C300E0
S11313D001184F5F18051859499387082403D387C8
S11313E0097A00A926EE3986087E18F63CDE828D3D
S11313F039187D0085270D8C00002703C3000143A5
S113140053C30001DE827E13363CDE828D1CDD89EF
S113141027137D00852704DC8793897D00862705B3
S11314204353C30001DE827E1336EC0027415FD7AD
S113143085D786C610D7A9EC002A037C0086A802AB
S11314402A037C0085EC002A054353C30001DD8791
S1131450EC022A054353C30001184F5F18051859BD
S1131460499387082403D387097A00A926EE39868D
S1131470087E18F63CDE82EC02A3002739203D3CAE
S1131480DE82EC02A3002D2E20323CDE82EC02A38D
S1131490002F2320273CDE82EC02A3002618201C08
S11314A03CDE82EC02A3002E0D20113CDE82EC0215
S11314B0A3002C022006CC00017E13364F5F7E135E
S11314C0364F5FDDA997AB9784E600C12D26057CD6
S11314D00084200BC12B2707BDFFC124362013082D
S11314E0E600BDFFC124402009DDA9E600BDFFC11F
S11314F02414C030D7ACDCA90505D3A905D3AB08A7
S113150025202B1020E3DCA97D008427054353C349
S113151000010D39188C80001826077D00842702ED
S113152020C786027E18F686047E18F62A0C37C673
S11315302DBDFFAC334353C300017F00A9CE156D0D
S11315407F00AAA30025057C00AA20F7E30037D674
S1131550AA27037C00A97D00A92705CB30BDFFACD9
S11315603308088C157526D8CB307EFFAC271003C2
S1131570E80064000AE600BDFFBE240D17E601BDC5
S1131580FFBE1624020C39080D39E6002707C120D6
S113159022030820F539C1222704C1272619173C44
S11315A008E60027141126F83808E600112705BDBF
S11315B0FFAC20F5080D390C39860A7E18F6BDFFFC
S11315C0B57B073926F839189CA522091805D3A339
S11315D0394F7E18F686167E18F6BD158ABD12039D
S11315E024073CDE8BED00383986047E18F6EC00C7
S11315F0270F189C961827072E07E6023A20EF0DAE
S1131600390C39DC0927FCDDA7CE02C24F5FED009F
S113161008088C02F626F77F009CCE0400DF9DECC0
S1131620002708080808BD119D20F27E1037CE045B
S113163000EC0027113CBD152C38080808BDFFAF8D
S1131640BDFFB20820EB7E104172018FBD158A27C1
S113165037BD1596251BBD12032511C13B2723C198
S11316602C271CC13A272186047E18F63CBD152C74
S11316703872018FBD158AC13B2707C12C2609BDCD
S113168015BE7F008F0820C47D008F2703BDFFB2E5
S11316907E117DBD158A2738C13A2734BD1596249D
S11316A00AE600C13B262908BD158ABD157524200C
S11316B0860258DD8BDF8DBD158A2706C13A2610B8
S11316C0DE8DBDFFA9CE0140BD15DADE8D7E117D14
S11316D04F7E18F6BD158A2712C13A270EBD120394
S11316E0240D5D27037E119D7E118D4F7E18F68695
S11316F0047E18F67201A0BD158A273FBD1203248B
S11317003E2B41DD967D00A0271718DEA18C022810
S1131710273C0909ED00DC9D0909ED00DFA17F00EC
S1131720A0DE9DEC00189C96182503CE0400BD1580
S1131730EE2416DF9D0808087E119D4F7E18F6865C
S1131740047E18F6860C7E18F686107E18F686122D
S11317507E18F6DEA18C02502710EC00DD9D0808EF
S1131760EC000808DFA1187E117D86147E18F67F30
S1131770009F7E117D72019F7E117DD6A754D6A84D
S113178056D8A7D7A756D8A8D7A81798A797A78495
S11317907FBD1316BD1219C129261D3CDE82EC0043
S11317A02F1AC30001ED00DF82D69F377F009FBD53
S11317B0138633D79F3808394F7E18F686027E1871
S11317C0F6DC94270ADC9093922704240320313911
S11317D0DDA9DC90D394DD92DE90DC9404240EA683
S11317E0001893A918A70018D3A918200DEC001805
S11317F093A918ED0018D3A91808089C9226EE396D
S1131800DC929390DDA9DC90D39418DC9404240F2B
S113181009A60018D3A918A7001893A918200E091F
S113182009EC0018D3A918ED001893A9189C902668
S1131830EE39EC0591B1262FD1B2262BEC074D27BA
S11318401B91B326225D2714D1B4261BEC094D2726
S11318500B91B526125D2704D1B6260BE602EE03E2
S113186031313CDE8D3A39EE0026C7DE8D0C391855
S11318707803160372756E00188103100F6E657776
S113188000188B04162E6C6973740018960516499B
S11318907072696E740018A1051693696E70757480
S11318A00018A90216D469660018B30416F7676F06
S11318B0746F0018BE0516F4676F7375620018C95B
S11318C006175372657475726E18D2031037656EFD
S11318D0640018DD05176F7472756E630018E805EF
S11318E01775666C6F6F7200000018F404177B7232
S11318F06E64280000007D00392703BDFFB2CE19B5
S113190029BDFFAF16CE19353AEE00BDFFAF7D00FD
S11319109C260DCE1930BDFFAFDE9DEC00BD152C0D
S1131920BDFFB2DE80357E10374F6F70732120000B
S113193020696E2000194D195A196D1980199919C9
S1131940A519BB19CF19E019F61A101A2553796E87
S1131950746178206572726F72004F7574206F66BF
S11319602072616E67652076616C756500496C6CE8
S11319706567616C2065787072657373696F6E005A
S113198043616C63756C61746520737461636B206F
S11319906F766572666C6F77005A65726F20446962
S11319A076696465005072696E742073746174653D
S11319B06D656E74206572726F7200496E76616C2B
S11319C06964206C696E65206E756D626572004D88
S11319D0656D6F72792073697A65206F7665720020
S11319E0556E646566696E6564206C696E65206E0B
S11319F0756D62657200537562726F7574696E6598
S1131A0020737461636B206F766572666C6F770008
S1131A1052657475726E20776974686F7574206787
S1131A206F737562005375627363726970742069B1
S1131A3073206F7574206F662072616E6765001B7A
S1131A405B324A1B5B313B31480036333033205420
S1131A50696E792042415349430D0A004F4B0D0AE8
S1131A600036373CCE1A97BDFFAFDCA9BDFFBBCE15
S1131A701A9CBDFFAFDCABBDFFBBCE1AA2BDFFAF4E
S1131A80DCADBDFFBBCE1AA8BDFFAFDCAFBDFFBB55
S1131A90BDFFB2383332395552303D0020555231F2
S1111AA03D00205552323D00205552333D008A
S9030000FC
