S113100030DF80CE0400DF9A4F5FED009798CE0169
S1131010C2ED0008088C01F626F772019CC63EBD9D
S1131020FFACBDFFA9CE0100BD12DB240A83000082
S11310302E08860C7E15DF7E10A0DF8DDD968604DB
S1131040E60027044C0820F89799DE9ADC9AD39896
S1131050188C0DFD182424DD9ADC96ED000808D6C2
S113106099E70008DF924FC003DD94DC8DDD90BD6D
S11310701524DE9A4F5FED007E101A860E7E15DF72
S1131080BD13A4270BC13A26030820144F7E15DF95
S11310907D009C2608DE9DE6023ADF9D397E101A0B
S11310A0BD13A427EBBD138F2412860158DD8BBD1D
S11310B013A4C13D262408BD13E120C4EC00DDA720
S11310C0EC02DDA9EC04DDABDF8D7D009C2705CEB1
S11310D015992003CE15B5BD155C4F7E15DFDFA530
S11310E030DFA3DEA5CC0172DD828D083CDE82EC0C
S11310F000380D398D50BD13A4C13D2608088D4616
S1131100BD128E20F1C13C262208E600C13E26080D
S1131110088D33BD12AF20DEC13D2608088D27BDE2
S113112012A420D28D20BD129920CBC13E261608D0
S1131130E600C13D2608088D0DBD12C520B88D06F8
S1131140BD12BA20B1398D1CBD13A4C12B260808C9
S11311508D12BD11D920F1C12D2608088D06BD11AF
S1131160E220E5398D28BD13A4C12A2608088D1E66
S1131170BD11EB20F1C12F2608088D12BD120820E5
S1131180E5C1252608088D06BD122420D939BD13D2
S1131190A4BD12DB2402201DBD138F240A3C86014A
S11311A05818EC0038200EC128261A08BD10F4C1C6
S11311B029261208393CDE8209098C0147250DEDE8
S11311C000DF823839DEA335DEA50C3986067E15AC
S11311D0DF0808ED00DF8238393CDE82EC02E300F0
S11311E020EF3CDE82EC02A30020E63CDE82A60374
S11311F0E6013DDD9FEC013DDB9FD79FA600E603A2
S11312003DDB9F17D6A020C93CDE828D37187D00B8
S113121085270D8C00002703C300014353C300013D
S1131220DE8220AD3CDE828D1BDD8927137D0085A7
S11312302704DC8793897D008627054353C3000177
S1131240DE82208DEC0027415FD785D786C610D774
S11312509FEC002A037C0086A8022A037C0085EC0C
S1131260002A054353C30001DD87EC022A054353DA
S1131270C30001184F5F18051859499387082403C0
S1131280D387097A009F26EE3986087E15DF3CDE77
S113129082EC02A3002739203D3CDE82EC02A3004D
S11312A02D2E20323CDE82EC02A3002F2320273C8B
S11312B0DE82EC02A3002618201C3CDE82EC02A392
S11312C0002E0D20113CDE82EC02A3002C0220062D
S11312D0CC00017E11D14F5F7E11D14F5FDD9F970E
S11312E0A19784E600C12D26057C0084200BC12B28
S11312F02707BDFFC12436201308E600BDFFC12423
S1131300402009DD9FE600BDFFC12414C030D7A2F0
S1131310DC9F0505D39F05D3A10825202B1020E3CE
S1131320DC9F7D008427054353C300010D39188CCD
S113133080001826077D0084270220C786027E15B8
S1131340DF86047E15DF2A0C37C62DBDFFAC334380
S113135053C300017F009FCE13877F00A0A3002505
S1131360057C00A020F7E30037D6A027037C009F6C
S11313707D009F2705CB30BDFFAC3308088C138F4D
S113138026D8CB307EFFAC271003E80064000AE6C1
S113139000BDFFBE240D17E601BDFFBE1624020CDE
S11313A039080D39E6002707C12022030820F53942
S11313B0C1222704C1272619173C08E60027141167
S11313C026F83808E600112705BDFFAC20F5080D06
S11313D0390C39860A7E15DFBDFFB57B073926F83F
S11313E039BD13A4BD10DE24073CDE8BED00383973
S11313F086047E15DFEC00270F189C961827072E0D
S113140007E6023A20EF0D390C39CE01C24F5FEDE9
S11314100008088C01F626F77F009CCE0400DF9DAF
S1131420EC002708080808BD10A020F27E101ACE90
S11314300400EC0027113CBD134638080808BDFF22
S1131440AFBDFFB20820EB7E101A72018FBD13A44A
S11314502737BD13B0251BBD10DE2511C13B272343
S1131460C12C271CC13A272186047E15DF3CBD13FD
S1131470463872018FBD13A4C13B2707C12C26092E
S1131480BD13D87F008F0820C47D008F2703BDFFC4
S1131490B27E1080BD13A42731BD13B0240AE60028
S11314A0C13B262908BD13A4BD138F2420860158EF
S11314B0DD8BDF8DBD13A42706C13A2610DE8DBD5A
S11314C0FFA9CE0100BD13E1DE8D7E10804F7E1595
S11314D0DFBD13A4270BBD10DE24095D27037E1096
S11314E0A07E109086047E15DFBD13A42723BD10B3
S11314F0DE24222B25DD96DE9DEC00189C96182513
S113150003CE0400BD13F52416DF9D0808087E10E1
S1131510A04F7E15DF86047E15DF860C7E15DF86E0
S1131520107E15DFDC942733DC929390DD9FDC90F2
S1131530D394DD92DE90DC9404240EA60018D39F8D
S113154018A70018939F18200DEC0018D39F18EDCE
S11315500018939F1808089C9226EE39EC0591A771
S1131560262FD1A8262BEC074D271B91A926225DF7
S11315702714D1AA261BEC094D270B91AB26125D2B
S11315802704D1AC260BE602EE0331313CDE8D3A62
S113159039EE0026C7DE8D0C3915A203140A7275C4
S11315A06E0015AB0310036E65770015B504142F98
S11315B06C6973740015C005144A7072696E740006
S11315C015CB051494696E7075740015D30214D18B
S11315D069660015DD0414E9676F746F0000007D0F
S11315E000392703BDFFB2CE1600BDFFAF16CE16DD
S11315F0083AEE00BDFFAFBDFFB2DE80357E101AA3
S11316004552524F523A2000161A1627163A164DD2
S1131610166616721688169C16AD53796E74617828
S1131620206572726F72004F7574206F662072614C
S11316306E67652076616C756500496C6C656761E1
S11316406C2065787072657373696F6E0043616CAA
S113165063756C61746520737461636B206F766568
S113166072666C6F77005A65726F2044697669649C
S113167065005072696E742073746174656D656E73
S113168074206572726F7200496E76616C696420B1
S11316906C696E65206E756D626572004D656D6F67
S11316A072792073697A65206F76657200556E646D
S11316B06566696E6564206C696E65206E756D6221
S11316C065720036373CCE16F9BDFFAFDC9FBDFF17
S11316D0BBCE16FEBDFFAFDCA1BDFFBBCE1704BD64
S11316E0FFAFDCA3BDFFBBCE170ABDFFAFDCA5BDBA
S11316F0FFBBBDFFB2383332395552303D0020555F
S113170052313D00205552323D00205552333D00A8
S9030000FC
