S113100030DF80CE0400DF9A4F5FED009798979F02
S113101097A0CE02C2ED0008088C02F626F7CE0295
S113102050DFA172019CC63EBDFFACBDFFA9CE013D
S113103040BD1427240A8300002E08860C7E17DC8A
S11310407E116BDF8DDD96BD14F02602201BDE8D34
S11310508604E60027044C0820F89799CE0400BDC6
S11310601541DF9D24297E10EFCE0400BD154124D7
S11310701BDF92E602D7993ADF90DC9A9390C30083
S113108002DD94BD16BCDC9A9398DD9A7E1023830E
S113109000002722DC9AD3988D48DD9ADF90D699F8
S11310A03ADF92DC9A9390C30002DD94BD16BCDE55
S11310B09D8D167E1023DC9AD3988D26DD9A8D099A
S11310C0DE9A4F5FED007E1023DC96ED000808D613
S11310D099E70008DF924FC003DD94DC8DDD907E3C
S11310E016BC188C0DFD18240139860E7E17DC966B
S11310F099A0022B2E2727E6023ADF90164FDDA592
S11311003ADF92DC9A9390C30002DD94DC9AD3A573
S11311108DD0DD9ABD16BCDE9D8DAE7E10238DA9CB
S11311207E1023E6023ADF9016504FDDA51893A5F2
S1131130DD92DC9A9390C30002DD94BD16BCDC9A68
S113114093A5DD9ADE9D8D817E1023BD14F0270BBF
S1131150C13A26030820144F7E17DC7D009C260824
S1131160DE9DE6023ADF9D397E1023BD14F027EBA5
S1131170BD14DB2412860258DD8BBD14F0C13D265C
S11311802408BD152D20C4EC00DDABEC02DDADEC74
S113119004DDAFDF8D7D009C2705CE176A2003CECA
S11311A01786BD172D4F7E17DCDFA930DFA7DEA918
S11311B0CC0228DD828D083CDE82EC00380D398DAE
S11311C050BD14F0C13D2608088D46BD13DA20F148
S11311D0C13C262208E600C13E2608088D33BD1313
S11311E0FB20DEC13D2608088D27BD13F020D28DDB
S11311F020BD13E520CBC13E261608E600C13D26DE
S113120008088D0DBD141120B88D06BD140620B13B
S1131210398D1CBD14F0C12B2608088D12BD12A4F3
S113122020F1C12D2608088D06BD12AD20E5398DAB
S113123028BD14F0C12A2608088D1EBD12B620F15F
S1131240C12F2608088D12BD12D320E5C12526081A
S1131250088D06BD12EC20D939BD14F0BD14272425
S113126002201DBD14DB240A3C86025818EC003809
S1131270200EC128261A08BD11BFC129261208391B
S11312803CDE8209098C01FE250DED00DF82383930
S1131290DEA735DEA90C3986067E17DC0808ED00CA
S11312A0DF8238393CDE82EC02E30020EF3CDE8250
S11312B0EC02A30020E63CDE82A603E6013DDDA3AA
S11312C0EC013DDBA3D7A3A600E6033DDBA317D6C1
S11312D0A420C97D009F267A3CDE828D2B187D00D8
S11312E08527054353C30001DE8220B07D009F267D
S11312F07E3CDE828D12DD89270A7D008627054328
S113130053C30001DE822094EC0027415FD785D7C8
S113131086C610D7A3EC022A037C0086A8002A0301
S11313207C0085EC002A054353C30001DD87EC02F1
S11313302A054353C30001184F5F180518594993F0
S113134087082403D387097A00A326EE3986087E0A
S113135017DC3CDE828D39187D0085270D8C00005A
S11313602703C300014353C30001DE827E129C3C69
S1131370DE828D1CDD8927137D00852704DC87939D
S1131380897D008627054353C30001DE827E129CBB
S1131390EC0027415FD785D786C610D7A3EC002A77
S11313A0037C0086A8022A037C0085EC002A0543FE
S11313B053C30001DD87EC022A054353C30001181F
S11313C04F5F18051859499387082403D387097A6E
S11313D000A326EE3986087E17DC3CDE82EC02A3ED
S11313E0002739203D3CDE82EC02A3002D2E203262
S11313F03CDE82EC02A3002F2320273CDE82EC0299
S1131400A3002618201C3CDE82EC02A3002E0D2033
S1131410113CDE82EC02A3002C022006CC00017EEB
S1131420129C4F5F7E129C4F5FDDA397A59784E6C5
S113143000C12D26057C0084200BC12B2707BDFF8E
S1131440C12436201308E600BDFFC124402009DD75
S1131450A3E600BDFFC12414C030D7A6DCA3050554
S1131460D3A305D3A50825202B1020E3DCA37D00FE
S11314708427054353C300010D39188C80001826B6
S1131480077D0084270220C786027E17DC86047E3F
S113149017DC2A0C37C62DBDFFAC334353C3000100
S11314A07F00A3CE14D37F00A4A30025057C00A451
S11314B020F7E30037D6A427037C00A37D00A327ED
S11314C005CB30BDFFAC3308088C14DB26D8CB30F9
S11314D07EFFAC271003E80064000AE600BDFFBEEF
S11314E0240D17E601BDFFBE1624020C39080D3980
S11314F0E6002707C12022030820F539C12227046A
S1131500C1272619173C08E60027141126F83808C5
S1131510E600112705BDFFAC20F5080D390C39860E
S11315200A7E17DCBDFFB57B073926F839BD14F0F8
S1131530BD11A924073CDE8BED00383986047E17E3
S1131540DCEC00270F189C961827072E07E6023AB2
S113155020EF0D390C39CE02C24F5FED0008088C24
S113156002F626F77F009CCE0400DF9DEC002708DE
S1131570080808BD116B20F27E1023CE0400EC0095
S113158027113CBD149238080808BDFFAFBDFFB257
S11315900820EB7E102372018FBD14F02737BD1491
S11315A0FC251BBD11A92511C13B2723C12C271CD8
S11315B0C13A272186047E17DC3CBD14923872019F
S11315C08FBD14F0C13B2707C12C2609BD15247F0C
S11315D0008F0820C47D008F2703BDFFB27E114B0E
S11315E0BD14F02731BD14FC240AE600C13B2629B2
S11315F008BD14F0BD14DB2420860258DD8BDF8D7A
S1131600BD14F02706C13A2610DE8DBDFFA9CE0118
S113161040BD152DDE8D7E114B4F7E17DCBD14F0C1
S1131620270BBD11A924095D27037E116B7E115B75
S113163086047E17DC7201A0BD14F0273FBD11A9FA
S1131640243E2B41DD967D00A0271718DEA18C02D5
S113165028273C0909ED00DC9D0909ED00DFA17F85
S113166000A0DE9DEC00189C96182503CE0400BD56
S113167015412416DF9D0808087E116B4F7E17DC88
S113168086047E17DC860C7E17DC86107E17DC86CB
S1131690127E17DCDEA18C02502710EC00DD9D08C1
S11316A008EC000808DFA1187E114B86147E17DCB5
S11316B07F009F7E114B72019F7E114BDC94270AA1
S11316C0DC90939227042403203139DDA3DC90D3EA
S11316D094DD92DE90DC9404240EA6001893A318E3
S11316E0A70018D3A318200DEC001893A318ED003D
S11316F018D3A31808089C9226EE39DC929390DD47
S1131700A3DC90D39418DC9404240F09A60018D306
S1131710A318A7001893A318200E0909EC0018D3E6
S1131720A318ED001893A3189C9026EE39EC0591AC
S1131730AB262FD1AC262BEC074D271B91AD2622CF
S11317405D2714D1AE261BEC094D270B91AF261251
S11317505D2704D1B0260BE602EE0331313CDE8D69
S11317603A39EE0026C7DE8D0C391773031556720D
S1131770756E00177C0310036E65770017860415D9
S11317807B6C6973740017910515967072696E7499
S113179000179C0515E0696E7075740017A4021695
S11317A01D69660017AE041638676F746F0017B9A9
S11317B0051635676F7375620017C4061694726553
S11317C07475726E17CF0516B07472756E63001758
S11317D0DA0516B6666C6F6F720000007D0039275B
S11317E003BDFFB2CE180FBDFFAF16CE181B3AEEE5
S11317F000BDFFAF7D009C260DCE1816BDFFAFDEE9
S11318009DEC00BD1492BDFFB2DE80357E10234FE7
S11318106F707321200020696E20001831183E1863
S1131820511864187D1889189F18B318C418DA1849
S1131830F453796E746178206572726F72004F751B
S113184074206F662072616E67652076616C7565C1
S113185000496C6C6567616C2065787072657373A0
S1131860696F6E0043616C63756C61746520737499
S113187061636B206F766572666C6F77005A657270
S11318806F20446976696465005072696E742073D0
S1131890746174656D656E74206572726F7200494F
S11318A06E76616C6964206C696E65206E756D621C
S11318B06572004D656D6F72792073697A65206F6A
S11318C076657200556E646566696E6564206C6940
S11318D06E65206E756D62657200537562726F7508
S11318E074696E6520737461636B206F76657266CC
S11318F06C6F770052657475726E20776974686FC7
S1131900757420676F7375620036373CCE193FBD1E
S1131910FFAFDCA3BDFFBBCE1944BDFFAFDCA5BD4B
S1131920FFBBCE194ABDFFAFDCA7BDFFBBCE19502C
S1131930BDFFAFDCA9BDFFBBBDFFB23833323955A3
S113194052303D00205552313D00205552323D0069
S1091950205552333D0056
S9030000FC
