S113100030DF80CE0400DF9A4F5FED009798CE0169
S1131010C2ED0008088C01F626F772019CC63EBD9D
S1131020FFACBDFFA9CE0100BD12D3240A8300008A
S11310302E08860C7E154F7E1093DF8DDD96860478
S1131040E60027044C0820F89799DE9ADC9AD39896
S1131050188C0DFD182424DD9ADC96ED000808D6C2
S113106099E70008DF924FC003DD94DC8DDD90BD6D
S113107014A7DE9A4F5FED007E101A860E7E154F80
S1131080BD139C2707C13A26060820077E101A4F75
S11310907E154FBD139C2737BD1387241286015834
S11310A0DD8BBD139CC13D262908BD13D920D1EC8D
S11310B000DDA5EC02DDA7EC04DDA9DF8D7D009C3D
S11310C02705CE151C2003CE152FBD14DF24037E67
S11310D0101A4F7E154FDFA330DFA1DEA3CC0172BF
S11310E0DD828D083CDE82EC00380D398D50BD1355
S11310F09CC13D2608088D46BD128620F1C13C26C0
S11311002208E600C13E2608088D33BD12A720DE62
S1131110C13D2608088D27BD129C20D28D20BD120A
S11311209120CBC13E261608E600C13D2608088D55
S11311300DBD12BD20B88D06BD12B220B1398D1C73
S1131140BD139CC12B2608088D12BD11D120F1C1FD
S11311502D2608088D06BD11DA20E5398D28BD132A
S11311609CC12A2608088D1EBD11E320F1C12F263B
S113117008088D12BD120020E5C1252608088D0639
S1131180BD121C20D939BD139CBD12D32402201DCD
S1131190BD1387240A3C86015818EC0038200EC180
S11311A028261A08BD10ECC129261208393CDE8213
S11311B009098C0147250DED00DF823839DEA135A0
S11311C0DEA30C3986067E154F0808ED00DF823851
S11311D0393CDE82EC02E30020EF3CDE82EC02A329
S11311E00020E63CDE82A603E6013DDD9DEC013DE8
S11311F0DB9DD79DA600E6033DDB9D17D69E20C947
S11312003CDE828D37187D0085270D8C0000270376
S1131210C300014353C30001DE8220AD3CDE828D56
S11312201BDD8927137D00852704DC8793897D00D6
S11312308627054353C30001DE82208DEC0027413D
S11312405FD785D786C610D79DEC002A037C00861D
S1131250A8022A037C0085EC002A054353C300013D
S1131260DD87EC022A054353C30001184F5F1805BC
S11312701859499387082403D387097A009D26EED9
S11312803986087E154F3CDE82EC02A30027392004
S11312903D3CDE82EC02A3002D2E20323CDE82ECAB
S11312A002A3002F2320273CDE82EC02A300261891
S11312B0201C3CDE82EC02A3002E0D20113CDE82B9
S11312C0EC02A3002C022006CC00017E11C94F5F62
S11312D07E11C94F5FDD9D979F9784E600C12D263F
S11312E0057C0084200BC12B2707BDFFC1243620B9
S11312F01308E600BDFFC124402009DD9DE600BDC2
S1131300FFC12414C030D7A0DC9D0505D39D05D3AF
S11313109F0825202B1020E3DC9D7D0084270543B6
S113132053C300010D39188C80001826077D0084F2
S1131330270220C786027E154F86047E154F2A0C8D
S113134037C62DBDFFAC334353C300017F009DCE90
S1131350137F7F009EA30025057C009E20F7E300F9
S113136037D69E27037C009D7D009D2705CB30BD8D
S1131370FFAC3308088C138726D8CB307EFFAC270C
S11313801003E80064000AE600BDFFBE240D17E662
S113139001BDFFBE1624020C39080D39E6002707EB
S11313A0C12022030820F539C1222704C1272619A8
S11313B0173C08E60027141126F83808E600112720
S11313C005BDFFAC20F5080D390C39860A7E154F92
S11313D0BDFFB57B073926F839BD139CBD10D62453
S11313E0073CDE8BED00383986047E154FCE0400B1
S11313F0EC0027113CBD133E38080808BDFFAFBD03
S1131400FFB20820EB7E101A72018FBD139C2737A0
S1131410BD13A8251BBD10D62511C13B2723C12C04
S1131420271CC13A272186047E154F3CBD133E3844
S113143072018FBD139CC13B2707C12C2609BD1324
S1131440D07F008F0820C47D008F2703BDFFB27EAC
S11314501080BD139C2731BD13A8240AE600C13BAC
S1131460262908BD139CBD13872420860158DD8BD3
S1131470DF8DBD139C2706C13A2610DE8DBDFFA962
S1131480CE0100BD13D9DE8D7E10804F7E154FBD79
S1131490139C270BBD10D624095D27037E10937E71
S11314A0101A86047E154FDC942733DC929390DD6A
S11314B09DDC90D394DD92DE90DC9404240EA6008F
S11314C018D39D18A70018939D18200DEC0018D36D
S11314D09D18ED0018939D1808089C9226EE39EC8F
S11314E00591A5262FD1A6262BEC074D271B91A7E6
S11314F026225D2714D1A8261BEC094D270B91A9A0
S113150026125D2704D1AA260BE602EE0331313CF4
S1131510DE8D3A39EE0026C7DE8D0C391525031011
S1131520036E657700152F0413ED6C697374001551
S11315303A0514087072696E7400154505145269F1
S11315406E70757400154D02148F69660000007D7D
S113155000392703BDFFB2CE1570BDFFAF16CE15FF
S1131560783AEE00BDFFAFBDFFB2DE80357E101AC3
S11315704552524F523A20001588159515A815BBAF
S113158015D415E015F6160A53796E746178206542
S113159072726F72004F7574206F662072616E678D
S11315A0652076616C756500496C6C6567616C20BB
S11315B065787072657373696F6E0043616C6375EF
S11315C06C61746520737461636B206F76657266F9
S11315D06C6F77005A65726F2044697669646500A0
S11315E05072696E742073746174656D656E7420D5
S11315F06572726F7200496E76616C6964206C6901
S11316006E65206E756D626572004D656D6F7279E1
S11316102073697A65206F7665720036373CCE1682
S113162051BDFFAFDC9DBDFFBBCE1656BDFFAFDC89
S11316309FBDFFBBCE165CBDFFAFDCA1BDFFBBCE23
S11316401662BDFFAFDCA3BDFFBBBDFFB2383332B2
S1131650395552303D00205552313D00205552320B
S10B16603D00205552333D000A
S9030000FC
