S113100030DF80CE0400DF9A4F5FED009798CE0268
S1131010C2ED0008088C02F626F7CC0402DDA3CC4E
S113102009FF04DDA5DC0927FCDDA7CE0250DFA102
S11310304F979F97A072019CC63EBDFFACBDFFA910
S1131040CE0140BD14AB240A8300002E08860C7E1A
S113105018D47E118BDF8DDD96BD15742602201BFE
S1131060DE8D8604E60027044C0820F89799CE0408
S113107000BD15D8DF9D24297E1101CE0400BD15C5
S1131080D8241BDF92E602D7993ADF90DC9A93903A
S1131090C30002DD94BD179FDC9A9398DD9A7E11FC
S11310A0598300002722DC9AD3988D48DD9ADF907B
S11310B0D6993ADF92DC9A9390C30002DD94BD176F
S11310C09FDE9D8D167E1159DC9AD3988D26DD9A6C
S11310D08D09DE9A4F5FED007E1159DC96ED000814
S11310E008D699E70008DF924FC003DD94DC8DDD5C
S11310F0907E179F188C0DFD18240139860E7E18DA
S1131100D49699A0022B2D2726E6023ADF90164F9B
S1131110DDAB3ADF92DC9A9390C30002DD94DC9A53
S1131120D3AB8DD0DD9ABD179FDE9D8DAE202A8D69
S1131130AA7E1035E6023ADF9016504FDDAB1893C5
S1131140ABDD92DC9A9390C30002DD94BD179FDC63
S11311509A93ABDD9ADE9D8D82DC9AC30002DDA3F7
S1131160CC0DFF93A304DDA57E1035BD1574270BAC
S1131170C13A26030820144F7E18D47D009C26080B
S1131180DE9DE6023ADF9D397E102BBD157427EBF8
S1131190C140261BE601C128264A0808BD11ED24DA
S11311A04737E600C129263C3308BD15B12008BDE8
S11311B0155F2412860258DD8BBD1574C13D2624AB
S11311C008BD15C420A5EC00DDB1EC02DDB3EC04D0
S11311D0DDB5DF8D7D009C2705CE184D2003CE188C
S11311E069BD18104F7E18D486047E18D4DFAF3042
S11311F0DFADDEAFCC0228DD828D083CDE82EC0060
S1131200380D398D50BD1574C13D2608088D46BD75
S1131210145E20F1C13C262208E600C13E260808DF
S11312208D33BD147F20DEC13D2608088D27BD14F3
S11312307420D28D20BD146920CBC13E261608E649
S113124000C13D2608088D0DBD149520B88D06BD3E
S1131250148A20B1398D1CBD1574C12B2608088D44
S113126012BD132820F1C12D2608088D06BD1331A7
S113127020E5398D28BD1574C12A2608088D1EBDA8
S1131280133A20F1C12F2608088D12BD135720E50B
S1131290C1252608088D06BD137020D939BD1574E3
S11312A0BD14AB24022059C1402622E601C12826E0
S11312B0660808BD1203C129265D3CDE82EC0008E5
S11312C008DF82BD15B118EC0038082033BD155F66
S11312D0240A3C86025818EC00382024EC00DDB1C6
S11312E0EC02DDB3EC04DDB5DF8DCE18C8BD1810FB
S11312F0E600C128261A08BD1203C129261208399E
S11313003CDE8209098C01FE2511ED00DF823839AB
S1131310DEAD35DEAF0C394F7E18D486067E18D488
S11313200808ED00DF8238393CDE82EC02E300205D
S1131330EF3CDE82EC02A30020E63CDE82A603E65C
S1131340013DDDA9EC013DDBA9D7A9A600E6033DDB
S1131350DBA917D6AA20C97D009F267A3CDE828DA0
S11313602B187D008527054353C30001DE8220B07E
S11313707D009F267E3CDE828D12DD89270A7D005A
S11313808627054353C30001DE822094EC002741E5
S11313905FD785D786C610D7A9EC022A037C0086BE
S11313A0A8002A037C0085EC002A054353C30001EE
S11313B0DD87EC022A054353C30001184F5F18056B
S11313C01859499387082403D387097A00A926EE7C
S11313D03986087E18D43CDE828D39187D00852735
S11313E00D8C00002703C300014353C30001DE82B8
S11313F07E13203CDE828D1CDD8927137D0085272A
S113140004DC8793897D008627054353C30001DEEE
S1131410827E1320EC0027415FD785D786C610D77C
S1131420A9EC002A037C0086A8022A037C0085EC30
S1131430002A054353C30001DD87EC022A05435308
S1131440C30001184F5F18051859499387082403EE
S1131450D387097A00A926EE3986087E18D43CDEA3
S113146082EC02A3002739203D3CDE82EC02A3007B
S11314702D2E20323CDE82EC02A3002F2320273CB9
S1131480DE82EC02A3002618201C3CDE82EC02A3C0
S1131490002E0D20113CDE82EC02A3002C0220065B
S11314A0CC00017E13204F5F7E13204F5FDDA99790
S11314B0AB9784E600C12D26057C0084200BC12B4C
S11314C02707BDFFC12436201308E600BDFFC12451
S11314D0402009DDA9E600BDFFC12414C030D7AC0B
S11314E0DCA90505D3A905D3AB0825202B1020E3DF
S11314F0DCA97D008427054353C300010D39188CF2
S113150080001826077D0084270220C786027E18E3
S1131510D486047E18D42A0C37C62DBDFFAC3343C1
S113152053C300017F00A9CE15577F00AAA300254D
S1131530057C00AA20F7E30037D6AA27037C00A97C
S11315407D00A92705CB30BDFFAC3308088C155F9F
S113155026D8CB307EFFAC271003E80064000AE6EF
S113156000BDFFBE240D17E601BDFFBE1624020C0C
S113157039080D39E6002707C12022030820F53970
S1131580C1222704C1272619173C08E60027141195
S113159026F83808E600112705BDFFAC20F5080D34
S11315A0390C39860A7E18D4BDFFB57B073926F875
S11315B039189CA522091805D3A3394F7E18D4865F
S11315C0167E18D4BD1574BD11ED24073CDE8BEDD9
S11315D000383986047E18D4EC00270F189C96181E
S11315E027072E07E6023A20EF0D390C39DC0927CC
S11315F0FCDDA7CE02C24F5FED0008088C02F62680
S1131600F77F009CCE0400DF9DEC00270808080843
S1131610BD118B20F27E102BCE0400EC0027113C70
S1131620BD151638080808BDFFAFBDFFB20820EB92
S11316307E103572018FBD15742737BD1580251BAB
S1131640BD11ED2511C13B2723C12C271CC13A270D
S11316502186047E18D43CBD15163872018FBD1541
S113166074C13B2707C12C2609BD15A87F008F082C
S113167020C47D008F2703BDFFB27E116BBD15749E
S11316802731BD1580240AE600C13B262908BD1573
S113169074BD155F2420860258DD8BDF8DBD157463
S11316A02706C13A2610DE8DBDFFA9CE0140BD1527
S11316B0C4DE8D7E116B4F7E18D4BD1574270BBD0F
S11316C011ED24095D27037E118B7E117B86047E38
S11316D018D47201A0BD1574273FBD11ED243E2B13
S11316E041DD967D00A0271718DEA18C0228273C37
S11316F00909ED00DC9D0909ED00DFA17F00A0DEF2
S11317009DEC00189C96182503CE0400BD15D82422
S113171016DF9D0808087E118B4F7E18D486047E40
S113172018D4860C7E18D486107E18D486127E189F
S1131730D4DEA18C02502710EC00DD9D0808EC00DB
S11317400808DFA1187E116B86147E18D47F009FD1
S11317507E116B72019F7E116BD6A754D6A856D802
S1131760A7D7A756D8A8D7A81798A797A7847FBDA7
S11317701300BD1203C129261D3CDE82EC002F1A82
S1131780C30001ED00DF82D69F377F009FBD137039
S113179033D79F3808394F7E18D486027E18D4DC9C
S11317A094270ADC90939227042403203139DDA97D
S11317B0DC90D394DD92DE90DC9404240EA6001811
S11317C093A918A70018D3A918200DEC001893A901
S11317D018ED0018D3A91808089C9226EE39DC925B
S11317E09390DDA9DC90D39418DC9404240F09A60B
S11317F00018D3A918A7001893A918200E0909ECFA
S11318000018D3A918ED001893A9189C9026EE3956
S1131810EC0591B1262FD1B2262BEC074D271B9155
S1131820B326225D2714D1B4261BEC094D270B9156
S1131830B526125D2704D1B6260BE602EE0331313C
S11318403CDE8D3A39EE0026C7DE8D0C391856037E
S113185015ED72756E00185F0310036E657700183E
S1131860690416186C697374001874051633707261
S1131870696E7400187F05167D696E7075740018A2
S1131880870216BA69660018910416D5676F746FDB
S113189000189C0516D2676F7375620018A70617A7
S11318A03172657475726E18B003102B656E640026
S11318B018BB05174D7472756E630018C60517536F
S11318C0666C6F6F7200000018D2041759726E6450
S11318D0280000007D00392703BDFFB2CE1907BDE3
S11318E0FFAF16CE19133AEE00BDFFAF7D009C2664
S11318F00DCE190EBDFFAFDE9DEC00BD1516BDFF6C
S1131900B2DE80357E102B4F6F707321200020696A
S11319106E2000192B1938194B195E197719831980
S11319209919AD19BE19D419EE1A0353796E74615D
S113193078206572726F72004F7574206F66207222
S1131940616E67652076616C756500496C6C6567CE
S1131950616C2065787072657373696F6E004361A2
S11319606C63756C61746520737461636B206F764E
S11319706572666C6F77005A65726F204469766988
S11319806465005072696E742073746174656D656A
S11319906E74206572726F7200496E76616C696450
S11319A0206C696E65206E756D626572004D656DA3
S11319B06F72792073697A65206F76657200556E4F
S11319C0646566696E6564206C696E65206E756D0C
S11319D062657200537562726F7574696E65207307
S11319E07461636B206F766572666C6F7700526505
S11319F07475726E20776974686F757420676F737D
S1131A007562005375627363726970742069732020
S1131A106F7574206F662072616E67650036373C9F
S1131A20CE1A53BDFFAFDCA9BDFFBBCE1A58BDFF14
S1131A30AFDCABBDFFBBCE1A5EBDFFAFDCADBDFFFF
S1131A40BBCE1A64BDFFAFDCAFBDFFBBBDFFB23878
S1131A503332395552303D00205552313D00205526
S10D1A6052323D00205552333D0080
S9030000FC
