S113100030DF80CE0400DF9A4F5FED0097987201C5
S11310109CC63EBDFFACBDFFA9CE0100BD12C724D6
S11310200A8300002E08860C7E153A7E1087DF8D19
S1131030DD968604E60027044C0820F89799DE9A8A
S1131040DC9AD398188C0DFD182424DD9ADC96EDD7
S1131050000808D699E70008DF924FC003DD94DC4E
S11310608DDD90BD149BDE9A4F5FED007E100E86E1
S11310700E7E153ABD13902707C13A2606082007AD
S11310807E100E4F7E153ABD13902737BD137B2477
S113109012860158DD8BBD1390C13D262908BD136E
S11310A0CD20D1EC00DDA5EC02DDA7EC04DDA9DF49
S11310B08D7D009C2705CE15102003CE151ABD1476
S11310C0D324037E100E4F7E153ADFA330DFA1DE5A
S11310D0A3CC0172DD828D083CDE82EC00380D3930
S11310E08D50BD1390C13D2608088D46BD127A204F
S11310F0F1C13C262208E600C13E2608088D33BD16
S1131100129B20DEC13D2608088D27BD129020D2F7
S11311108D20BD128520CBC13E261608E600C13DB8
S11311202608088D0DBD12B120B88D06BD12A6206B
S1131130B1398D1CBD1390C12B2608088D12BD1129
S1131140C520F1C12D2608088D06BD11CE20E53934
S11311508D28BD1390C12A2608088D1EBD11D720E5
S1131160F1C12F2608088D12BD11F420E5C12526F2
S113117008088D06BD121020D939BD1390BD12C7C1
S11311802402201DBD137B240A3C86015818EC0060
S113119038200EC128261A08BD10E0C129261208DD
S11311A0393CDE8209098C0147250DED00DF8238C8
S11311B039DEA135DEA30C3986067E153A0808ED22
S11311C000DF8238393CDE82EC02E30020EF3CDEB3
S11311D082EC02A30020E63CDE82A603E6013DDDAC
S11311E09DEC013DDB9DD79DA600E6033DDB9D17ED
S11311F0D69E20C93CDE828D37187D0085270D8C54
S113120000002703C300014353C30001DE8220AD65
S11312103CDE828D1BDD8927137D00852704DC8756
S113122093897D008627054353C30001DE82208D08
S1131230EC0027415FD785D786C610D79DEC002ADE
S1131240037C0086A8022A037C0085EC002A05435F
S113125053C30001DD87EC022A054353C300011880
S11312604F5F18051859499387082403D387097ACF
S1131270009D26EE3986087E153A3CDE82EC02A3F8
S1131280002739203D3CDE82EC02A3002D2E2032C3
S11312903CDE82EC02A3002F2320273CDE82EC02FA
S11312A0A3002618201C3CDE82EC02A3002E0D2095
S11312B0113CDE82EC02A3002C022006CC00017E4D
S11312C011BD4F5F7E11BD4F5FDD9D979F9784E6F3
S11312D000C12D26057C0084200BC12B2707BDFFF0
S11312E0C12436201308E600BDFFC124402009DDD7
S11312F09DE600BDFFC12414C030D7A0DC9D0505C8
S1131300D39D05D39F0825202B1020E3DC9D7D0071
S11313108427054353C300010D39188C8000182617
S1131320077D0084270220C786027E153A86047E44
S1131330153A2A0C37C62DBDFFAC334353C3000105
S11313407F009DCE13737F009EA30025057C009E25
S113135020F7E30037D69E27037C009D7D009D2760
S113136005CB30BDFFAC3308088C137B26D8CB30BB
S11313707EFFAC271003E80064000AE600BDFFBE50
S1131380240D17E601BDFFBE1624020C39080D39E1
S1131390E6002707C12022030820F539C1222704CB
S11313A0C1272619173C08E60027141126F8380827
S11313B0E600112705BDFFAC20F5080D390C398670
S11313C00A7E153ABDFFB57B073926F839BD13905F
S11313D0BD10CA24073CDE8BED00383986047E1527
S11313E03ACE0400EC0027113CBD1332380808083B
S11313F0BDFFAFBDFFB20820EB7E100E72018FBDA2
S113140013902737BD139C251BBD10CA2511C13B62
S11314102723C12C271CC13A272186047E153A3C78
S1131420BD13323872018FBD1390C13B2707C12C05
S11314302609BD13C47F008F0820C47D008F2703B5
S1131440BDFFB27E1074BD13902731BD139C240AD6
S1131450E600C13B262908BD1390BD137B242086DA
S11314600158DD8BDF8DBD13902706C13A2610DEAF
S11314708DBDFFA9CE0100BD13CDDE8D7E10744F4E
S11314807E153ABD1390270BBD10CA24095D2703AE
S11314907E10877E100E86047E153ADC942733DC9A
S11314A0929390DD9DDC90D394DD92DE90DC9404E5
S11314B0240EA60018D39D18A70018939D18200D7C
S11314C0EC0018D39D18ED0018939D1808089C9201
S11314D026EE39EC0591A5262FD1A6262BEC074D37
S11314E0271B91A726225D2714D1A8261BEC094DA2
S11314F0270B91A926125D2704D1AA260BE602EE3A
S11315000331313CDE8D3A39EE0026C7DE8D0C39CD
S1131510151A0413E16C6973740015250513FC7026
S113152072696E74001530051446696E7075740026
S1131530153802148369660000007D00392703BD55
S1131540FFB2CE155BBDFFAF16CE15633AEE00BDFC
S1131550FFAFBDFFB2DE80357E100E4552524F52B2
S11315603A200015731580159315A615BF15CB15D4
S1131570E115F553796E746178206572726F7200AB
S11315804F7574206F662072616E67652076616C9A
S1131590756500496C6C6567616C2065787072656F
S11315A07373696F6E0043616C63756C617465205D
S11315B0737461636B206F766572666C6F77005A23
S11315C065726F20446976696465005072696E744F
S11315D02073746174656D656E74206572726F72C8
S11315E000496E76616C6964206C696E65206E7565
S11315F06D626572004D656D6F72792073697A65ED
S1131600206F7665720036373CCE163CBDFFAFDCEA
S11316109DBDFFBBCE1641BDFFAFDC9FBDFFBBCE62
S11316201647BDFFAFDCA1BDFFBBCE164DBDFFAF5E
S1131630DCA3BDFFBBBDFFB2383332395552303D58
S113164000205552313D00205552323D0020555264
S1061650333D0023
S9030000FC
