S113100030DF80CE0400DF9A4F5FED009798979F02
S113101097A0CE02C2ED0008088C02F626F7CC0495
S113102002DDA3CC09FF04DDA5CE0250DFA17201CD
S11310309CC63EBDFFACBDFFA9CE0140BD148E24AD
S11310400A8300002E08860C7E18567E1184DF8DDC
S1131050DD96BD15572602201BDE8D8604E600278B
S1131060044C0820F89799CE0400BD15BBDF9D24DD
S1131070297E10FACE0400BD15BB241BDF92E602C4
S1131080D7993ADF90DC9A9390C30002DD94BD17A0
S113109036DC9A9398DD9A7E11528300002722DC75
S11310A09AD3988D48DD9ADF90D6993ADF92DC9AEC
S11310B09390C30002DD94BD1736DE9D8D167E111C
S11310C052DC9AD3988D26DD9A8D09DE9A4F5FED16
S11310D0007E1152DC96ED000808D699E70008DF7F
S11310E0924FC003DD94DC8DDD907E1736188C0D95
S11310F0FD18240139860E7E18569699A0022B2DD0
S11311002726E6023ADF90164FDDA93ADF92DC9AF1
S11311109390C30002DD94DC9AD3A98DD0DD9ABDEF
S11311201736DE9D8DAE202A8DAA7E102EE6023A59
S1131130DF9016504FDDA91893A9DD92DC9A9390A5
S1131140C30002DD94BD1736DC9A93A9DD9ADE9DB7
S11311508D82DC9AC30002DDA3CC0DFF93A304DDD2
S1131160A57E102EBD1557270BC13A26030820145F
S11311704F7E18567D009C2608DE9DE6023ADF9DD0
S1131180397E102EBD155727EBC140261BE601C141
S113119028264A0808BD11E6244737E600C1292657
S11311A03C3308BD15942008BD154224128602580C
S11311B0DD8BBD1557C13D262408BD15A720A5EC20
S11311C000DDAFEC02DDB1EC04DDB3DF8D7D009C0E
S11311D02705CE17E42003CE1800BD17A74F7E18AD
S11311E05686047E1856DFAD30DFABDEADCC022868
S11311F0DD828D083CDE82EC00380D398D50BD1542
S113120057C13D2608088D46BD144120F1C13C2636
S11312102208E600C13E2608088D33BD146220DE94
S1131220C13D2608088D27BD145720D28D20BD143A
S11312304C20CBC13E261608E600C13D2608088D89
S11312400DBD147820B88D06BD146D20B1398D1CE8
S1131250BD1557C12B2608088D12BD130B20F1C1F3
S11312602D2608088D06BD131420E5398D28BD15DB
S113127057C12A2608088D1EBD131D20F1C12F2633
S113128008088D12BD133A20E5C1252608088D06ED
S1131290BD135320D939BD1557BD148E24022043E4
S11312A0C1402622E601C12826500808BD11FCC110
S11312B02926473CDE82EC000808DF82BD1594181D
S11312C0EC003808201DBD1542240A3C860258183B
S11312D0EC0038200EC128261A08BD11FCC12926AD
S11312E01208393CDE8209098C01FE2511ED00DF6C
S11312F0823839DEAB35DEAD0C394F7E18568606A2
S11313007E18560808ED00DF8238393CDE82EC0294
S1131310E30020EF3CDE82EC02A30020E63CDE8208
S1131320A603E6013DDDA7EC013DDBA7D7A7A60098
S1131330E6033DDBA717D6A820C97D009F267A3C8B
S1131340DE828D2B187D008527054353C30001DE03
S11313508220B07D009F267E3CDE828D12DD8927AF
S11313600A7D008627054353C30001DE822094ECE6
S11313700027415FD785D786C610D7A7EC022A037A
S11313807C0086A8002A037C0085EC002A054353D0
S1131390C30001DD87EC022A054353C30001184F43
S11313A05F18051859499387082403D387097A00DD
S11313B0A726EE3986087E18563CDE828D39187DC4
S11313C00085270D8C00002703C300014353C3008D
S11313D001DE827E13033CDE828D1CDD8927137DB2
S11313E000852704DC8793897D008627054353C342
S11313F00001DE827E1303EC0027415FD785D78688
S1131400C610D7A7EC002A037C0086A8022A037C16
S11314100085EC002A054353C30001DD87EC022A52
S1131420054353C30001184F5F18051859499387A2
S1131430082403D387097A00A726EE3986087E1884
S1131440563CDE82EC02A3002739203D3CDE82ECD0
S113145002A3002D2E20323CDE82EC02A3002F23B7
S113146020273CDE82EC02A3002618201C3CDE82EE
S1131470EC02A3002E0D20113CDE82EC02A3002C12
S1131480022006CC00017E13034F5F7E13034F5FDF
S1131490DDA797A99784E600C12D26057C0084204A
S11314A00BC12B2707BDFFC12436201308E600BD5E
S11314B0FFC124402009DDA7E600BDFFC12414C0FC
S11314C030D7AADCA70505D3A705D3A90825202B67
S11314D01020E3DCA77D008427054353C300010DDE
S11314E039188C80001826077D0084270220C786BF
S11314F0027E185686047E18562A0C37C62DBDFF68
S1131500AC334353C300017F00A7CE153A7F00A834
S1131510A30025057C00A820F7E30037D6A82703FD
S11315207C00A77D00A72705CB30BDFFAC3308089E
S11315308C154226D8CB307EFFAC271003E800641C
S1131540000AE600BDFFBE240D17E601BDFFBE166E
S113155024020C39080D39E6002707C120220308AC
S113156020F539C1222704C1272619173C08E600B3
S113157027141126F83808E600112705BDFFAC2012
S1131580F5080D390C39860A7E1856BDFFB57B0760
S11315903926F839189CA522091805D3A3394F7E9A
S11315A0185686167E1856BD1557BD11E624073CFD
S11315B0DE8BED00383986047E1856EC00270F18B0
S11315C09C961827072E07E6023A20EF0D390C39AE
S11315D0CE02C24F5FED0008088C02F626F77F00AA
S11315E09CCE0400DF9DEC002708080808BD118488
S11315F020F27E102ECE0400EC0027113CBD14F91D
S113160038080808BDFFAFBDFFB20820EB7E102EDE
S113161072018FBD15572737BD1563251BBD11E614
S11316202511C13B2723C12C271CC13A272186043D
S11316307E18563CBD14F93872018FBD1557C13B55
S11316402707C12C2609BD158B7F008F0820C47D78
S1131650008F2703BDFFB27E1164BD15572731BD2E
S11316601563240AE600C13B262908BD1557BD159C
S1131670422420860258DD8BDF8DBD15572706C115
S11316803A2610DE8DBDFFA9CE0140BD15A7DE8D23
S11316907E11644F7E1856BD1557270BBD11E624E5
S11316A0095D27037E11847E117486047E185672A8
S11316B001A0BD1557273FBD11E6243E2B41DD9601
S11316C07D00A0271718DEA18C0228273C0909ED0C
S11316D000DC9D0909ED00DFA17F00A0DE9DEC0088
S11316E0189C96182503CE0400BD15BB2416DF9D57
S11316F00808087E11844F7E185686047E18568684
S11317000C7E185686107E185686127E1856DEA158
S11317108C02502710EC00DD9D0808EC000808DF5F
S1131720A1187E116486147E18567F009F7E116472
S113173072019F7E1164DC94270ADC909392270443
S11317402403203139DDA7DC90D394DD92DE90DCD4
S11317509404240EA6001893A718A70018D3A7185A
S1131760200DEC001893A718ED0018D3A71808084B
S11317709C9226EE39DC929390DDA7DC90D39418EA
S1131780DC9404240F09A60018D3A718A700189303
S1131790A718200E0909EC0018D3A718ED00189318
S11317A0A7189C9026EE39EC0591AF262FD1B026D0
S11317B02BEC074D271B91B126225D2714D1B226AD
S11317C01BEC094D270B91B326125D2704D1B426D7
S11317D00BE602EE0331313CDE8D3A39EE0026C7CA
S11317E0DE8D0C3917ED0315D072756E0017F603F4
S11317F010036E65770018000415F56C69737400A6
S1131800180B0516107072696E7400181605165AB6
S1131810696E70757400181E0216976966001828A0
S11318200416B2676F746F0018330516AF676F73D1
S1131830756200183E06170E72657475726E18494B
S113184005172A7472756E63001854051730666C98
S11318506F6F720000007D00392703BDFFB2CE1800
S113186089BDFFAF16CE18953AEE00BDFFAF7D00DF
S11318709C260DCE1890BDFFAFDE9DEC00BD14F983
S1131880BDFFB2DE80357E102E4F6F7073212000B5
S113189020696E200018AD18BA18CD18E018F9198F
S11318A005191B192F194019561970198553796E8A
S11318B0746178206572726F72004F7574206F6660
S11318C02072616E67652076616C756500496C6C89
S11318D06567616C2065787072657373696F6E00FB
S11318E043616C63756C61746520737461636B2010
S11318F06F766572666C6F77005A65726F20446903
S113190076696465005072696E74207374617465DD
S11319106D656E74206572726F7200496E76616CCB
S11319206964206C696E65206E756D626572004D28
S1131930656D6F72792073697A65206F76657200C0
S1131940556E646566696E6564206C696E65206EAB
S1131950756D62657200537562726F7574696E6538
S113196020737461636B206F766572666C6F7700A9
S113197052657475726E20776974686F7574206728
S11319806F73756200537562736372697074206952
S113199073206F7574206F662072616E6765003600
S11319A0373CCE19D5BDFFAFDCA7BDFFBBCE19DADE
S11319B0BDFFAFDCA9BDFFBBCE19E0BDFFAFDCAB03
S11319C0BDFFBBCE19E6BDFFAFDCADBDFFBBBDFFA8
S11319D0B2383332395552303D00205552313D0032
S10F19E0205552323D00205552333D008A
S9030000FC
