S113100030DF80CE0400DF9A4F5FED009798979F02
S1131010CE01C2ED0008088C01F626F772019CC6C9
S11310203EBDFFACBDFFA9CE0100BD135E240A8303
S113103000002E08860C7E16847E10A2DF8DDD96BD
S11310408604E60027044C0820F89799DE9ADC9A77
S1131050D398188C0DFD182424DD9ADC96ED000835
S113106008D699E70008DF924FC003DD94DC8DDDDC
S113107090BD15B3DE9A4F5FED007E101C860E7E88
S11310801684BD1427270BC13A26030820144F7E6B
S113109016847D009C2608DE9DE6023ADF9D397E9B
S11310A0101CBD142727EBBD14122412860158DD31
S11310B08BBD1427C13D262408BD146420C4EC0054
S11310C0DDA8EC02DDAAEC04DDACDF8D7D009C27FD
S11310D005CE16282003CE1644BD15EB4F7E16848C
S11310E0DFA630DFA4DEA6CC0172DD828D083CDEF3
S11310F082EC00380D398D50BD1427C13D260808F7
S11311008D46BD131120F1C13C262208E600C13EE4
S11311102608088D33BD133220DEC13D2608088D14
S113112027BD132720D28D20BD131C20CBC13E2602
S11311301608E600C13D2608088D0DBD134820B8E9
S11311408D06BD133D20B1398D1CBD1427C12B263E
S113115008088D12BD11DB20F1C12D2608088D066B
S1131160BD11E420E5398D28BD1427C12A260808BD
S11311708D1EBD11ED20F1C12F2608088D12BD1260
S11311800A20E5C1252608088D06BD122320D93979
S1131190BD1427BD135E2402201DBD1412240A3C75
S11311A086015818EC0038200EC128261A08BD10F4
S11311B0F6C129261208393CDE8209098C0147252B
S11311C00DED00DF823839DEA435DEA60C39860643
S11311D07E16840808ED00DF8238393CDE82EC029A
S11311E0E30020EF3CDE82EC02A30020E63CDE823A
S11311F0A603E6013DDDA0EC013DDBA0D7A0A600DF
S1131200E6033DDBA017D6A120C97D009F267A3CCA
S1131210DE828D2B187D008527054353C30001DE34
S11312208220B07D009F267E3CDE828D12DD8927E0
S11312300A7D008627054353C30001DE822094EC17
S11312400027415FD785D786C610D7A0EC022A03B2
S11312507C0086A8002A037C0085EC002A05435301
S1131260C30001DD87EC022A054353C30001184F74
S11312705F18051859499387082403D387097A000E
S1131280A026EE3986087E16843CDE828D39187DD0
S11312900085270D8C00002703C300014353C300BE
S11312A001DE827E11D33CDE828D1CDD8927137D15
S11312B000852704DC8793897D008627054353C373
S11312C00001DE827E11D3EC0027415FD785D786EB
S11312D0C610D7A0EC002A037C0086A8022A037C4F
S11312E00085EC002A054353C30001DD87EC022A84
S11312F0054353C30001184F5F18051859499387D4
S1131300082403D387097A00A026EE3986087E16BE
S1131310843CDE82EC02A3002739203D3CDE82ECD3
S113132002A3002D2E20323CDE82EC02A3002F23E8
S113133020273CDE82EC02A3002618201C3CDE821F
S1131340EC02A3002E0D20113CDE82EC02A3002C43
S1131350022006CC00017E11D34F5F7E11D34F5F74
S1131360DDA097A29784E600C12D26057C00842089
S11313700BC12B2707BDFFC12436201308E600BD8F
S1131380FFC124402009DDA0E600BDFFC12414C034
S113139030D7A3DCA00505D3A005D3A20825202BB4
S11313A01020E3DCA07D008427054353C300010D16
S11313B039188C80001826077D0084270220C786F0
S11313C0027E168486047E16842A0C37C62DBDFF41
S11313D0AC334353C300017F00A0CE140A7F00A1A5
S11313E0A30025057C00A120F7E30037D6A127033D
S11313F07C00A07D00A02705CB30BDFFAC330808DE
S11314008C141226D8CB307EFFAC271003E800647E
S1131410000AE600BDFFBE240D17E601BDFFBE169F
S113142024020C39080D39E6002707C120220308DD
S113143020F539C1222704C1272619173C08E600E4
S113144027141126F83808E600112705BDFFAC2043
S1131450F5080D390C39860A7E1684BDFFB57B0765
S11314603926F839BD1427BD10E024073CDE8BED86
S113147000383986047E1684EC00270F189C9618D1
S113148027072E07E6023A20EF0D390C39CE01C2A8
S11314904F5FED0008088C01F626F77F009CCE0410
S11314A000DF9DEC002708080808BD10A220F27E8A
S11314B0101CCE0400EC0027113CBD13C9380808E9
S11314C008BDFFAFBDFFB20820EB7E101C72018F78
S11314D0BD14272737BD1433251BBD10E02511C1CA
S11314E03B2723C12C271CC13A272186047E16845E
S11314F03CBD13C93872018FBD1427C13B2707C1F6
S11315002C2609BD145B7F008F0820C47D008F2723
S113151003BDFFB27E1082BD14272731BD143324CE
S11315200AE600C13B262908BD1427BD1412242055
S1131530860158DD8BDF8DBD14272706C13A26109E
S1131540DE8DBDFFA9CE0100BD1464DE8D7E108248
S11315504F7E1684BD1427270BBD10E024095D2798
S1131560037E10A27E109286047E1684BD14272763
S113157023BD10E024222B25DD96DE9DEC00189C73
S113158096182503CE0400BD14782416DF9D0808A0
S1131590087E10A24F7E168486047E1684860C7EF6
S11315A0168486107E16847F009F7E108272019FAF
S11315B07E1082DC942733DC929390DDA0DC90D300
S11315C094DD92DE90DC9404240EA60018D3A018B7
S11315D0A7001893A018200DEC0018D3A018ED0054
S11315E01893A01808089C9226EE39EC0591A826B9
S11315F02FD1A9262BEC074D271B91AA26225D2764
S113160014D1AB261BEC094D270B91AC26125D2798
S113161004D1AD260BE602EE0331313CDE8D3A39BE
S1131620EE0026C7DE8D0C39163103148D72756EEB
S113163000163A0310036E65770016440414B26C66
S113164069737400164F0514CD7072696E740016B8
S11316505A051517696E707574001662021554697F
S11316606600166C04156C676F746F0016770515A9
S1131670A77472756E630016820515AD666C6F6F84
S1131680720000007D00392703BDFFB2CE16A5BD50
S1131690FFAF16CE16AD3AEE00BDFFAFBDFFB2DE12
S11316A080357E101C4552524F523A200016BF1608
S11316B0CC16DF16F2170B1717172D1741175253B5
S11316C0796E746178206572726F72004F75742040
S11316D06F662072616E67652076616C756500497E
S11316E06C6C6567616C2065787072657373696F83
S11316F06E0043616C63756C61746520737461631F
S11317006B206F766572666C6F77005A65726F2016
S1131710446976696465005072696E7420737461FB
S113172074656D656E74206572726F7200496E76B1
S1131730616C6964206C696E65206E756D6265729A
S1131740004D656D6F72792073697A65206F7665D7
S11317507200556E646566696E6564206C696E65B9
S1131760206E756D6265720036373CCE179EBDFFE4
S1131770AFDCA0BDFFBBCE17A3BDFFAFDCA2BDFF96
S1131780BBCE17A9BDFFAFDCA4BDFFBBCE17AFBD59
S1131790FFAFDCA6BDFFBBBDFFB2383332395552B3
S11317A0303D00205552313D00205552323D00203D
S10817B05552333D0019
S9030000FC
