S113100030DF80CE0400DF9A4F5FED009798CE0169
S1131010C2ED0008088C01F626F772019CC63EBD9D
S1131020FFACBDFFA9CE0100BD12DB240A83000082
S11310302E08860C7E15857E10A0DF8DDD96860435
S1131040E60027044C0820F89799DE9ADC9AD39896
S1131050188C0DFD182424DD9ADC96ED000808D6C2
S113106099E70008DF924FC003DD94DC8DDD90BD6D
S113107014D4DE9A4F5FED007E101A860E7E15851D
S1131080BD13A4270BC13A26030820144F7E1585EF
S11310907D009C2608DE9DE6023ADF9D397E101A0B
S11310A0BD13A427EBBD138F2412860158DD8BBD1D
S11310B013A4C13D262408BD13E120C4EC00DDA720
S11310C0EC02DDA9EC04DDABDF8D7D009C2705CEB1
S11310D015492003CE1565BD150C4F7E1585DFA57A
S11310E030DFA3DEA5CC0172DD828D083CDE82EC0C
S11310F000380D398D50BD13A4C13D2608088D4616
S1131100BD128E20F1C13C262208E600C13E26080D
S1131110088D33BD12AF20DEC13D2608088D27BDE2
S113112012A420D28D20BD129920CBC13E261608D0
S1131130E600C13D2608088D0DBD12C520B88D06F8
S1131140BD12BA20B1398D1CBD13A4C12B260808C9
S11311508D12BD11D920F1C12D2608088D06BD11AF
S1131160E220E5398D28BD13A4C12A2608088D1E66
S1131170BD11EB20F1C12F2608088D12BD120820E5
S1131180E5C1252608088D06BD122420D939BD13D2
S1131190A4BD12DB2402201DBD138F240A3C86014A
S11311A05818EC0038200EC128261A08BD10F4C1C6
S11311B029261208393CDE8209098C0147250DEDE8
S11311C000DF823839DEA335DEA50C3986067E15AC
S11311D0850808ED00DF8238393CDE82EC02E3004A
S11311E020EF3CDE82EC02A30020E63CDE82A60374
S11311F0E6013DDD9FEC013DDB9FD79FA600E603A2
S11312003DDB9F17D6A020C93CDE828D37187D00B8
S113121085270D8C00002703C300014353C300013D
S1131220DE8220AD3CDE828D1BDD8927137D0085A7
S11312302704DC8793897D008627054353C3000177
S1131240DE82208DEC0027415FD785D786C610D774
S11312509FEC002A037C0086A8022A037C0085EC0C
S1131260002A054353C30001DD87EC022A054353DA
S1131270C30001184F5F18051859499387082403C0
S1131280D387097A009F26EE3986087E15853CDED1
S113129082EC02A3002739203D3CDE82EC02A3004D
S11312A02D2E20323CDE82EC02A3002F2320273C8B
S11312B0DE82EC02A3002618201C3CDE82EC02A392
S11312C0002E0D20113CDE82EC02A3002C0220062D
S11312D0CC00017E11D14F5F7E11D14F5FDD9F970E
S11312E0A19784E600C12D26057C0084200BC12B28
S11312F02707BDFFC12436201308E600BDFFC12423
S1131300402009DD9FE600BDFFC12414C030D7A2F0
S1131310DC9F0505D39F05D3A10825202B1020E3CE
S1131320DC9F7D008427054353C300010D39188CCD
S113133080001826077D0084270220C786027E15B8
S11313408586047E15852A0C37C62DBDFFAC334334
S113135053C300017F009FCE13877F00A0A3002505
S1131360057C00A020F7E30037D6A027037C009F6C
S11313707D009F2705CB30BDFFAC3308088C138F4D
S113138026D8CB307EFFAC271003E80064000AE6C1
S113139000BDFFBE240D17E601BDFFBE1624020CDE
S11313A039080D39E6002707C12022030820F53942
S11313B0C1222704C1272619173C08E60027141167
S11313C026F83808E600112705BDFFAC20F5080D06
S11313D0390C39860A7E1585BDFFB57B073926F899
S11313E039BD13A4BD10DE24073CDE8BED00383973
S11313F086047E1585CE01C24F5FED0008088C017E
S1131400F626F77F009CCE0400DF9DEC0027080839
S11314100808BD10A020F27E101ACE0400EC0027AC
S1131420113CBD134638080808BDFFAFBDFFB20824
S113143020EB7E101A72018FBD13A42737BD13B0A1
S1131440251BBD10DE2511C13B2723C12C271CC140
S11314503A272186047E15853CBD13463872018FD8
S1131460BD13A4C13B2707C12C2609BD13D87F0097
S11314708F0820C47D008F2703BDFFB27E1080BD7E
S113148013A42731BD13B0240AE600C13B26290862
S1131490BD13A4BD138F2420860158DD8BDF8DBDC1
S11314A013A42706C13A2610DE8DBDFFA9CE010084
S11314B0BD13E1DE8D7E10804F7E1585BD13A427FC
S11314C00BBD10DE24095D27037E10A07E109086DC
S11314D0047E1585DC942733DC929390DD9FDC90A9
S11314E0D394DD92DE90DC9404240EA60018D39FDE
S11314F018A70018939F18200DEC0018D39F18ED1F
S11315000018939F1808089C9226EE39EC0591A7C1
S1131510262FD1A8262BEC074D271B91A926225D47
S11315202714D1AA261BEC094D270B91AB26125D7B
S11315302704D1AC260BE602EE0331313CDE8D3AB2
S113154039EE0026C7DE8D0C3915520313F572757A
S11315506E00155B0310036E657700156504141A9D
S11315606C6973740015700514357072696E7400BB
S1131570157B05147F696E7075740015830214BCA5
S113158069660000007D00392703BDFFB2CE15A6B1
S1131590BDFFAF16CE15AE3AEE00BDFFAFBDFFB234
S11315A0DE80357E101A4552524F523A200015BE45
S11315B015CB15DE15F1160A1616162C164053799E
S11315C06E746178206572726F72004F7574206F4B
S11315D0662072616E67652076616C756500496C82
S11315E06C6567616C2065787072657373696F6E82
S11315F00043616C63756C61746520737461636B23
S1131600206F766572666C6F77005A65726F20443E
S11316106976696465005072696E742073746174CC
S1131620656D656E74206572726F7200496E7661C5
S11316306C6964206C696E65206E756D62657200FC
S11316404D656D6F72792073697A65206F76657266
S11316500036373CCE1687BDFFAFDC9FBDFFBBCE47
S1131660168CBDFFAFDCA1BDFFBBCE1692BDFFAF94
S1131670DCA3BDFFBBCE1698BDFFAFDCA5BDFFBB91
S1131680BDFFB2383332395552303D002055523106
S11116903D00205552323D00205552333D009E
S9030000FC
