S113100030DF80C63EBDFFACBDFFA9CE01007E101F
S113101024BD12832707C13A26060820077E100341
S11310204F7E13DCBD1283272DBD126E2412860160
S113103058DD8BBD1283C13D261F08BD12C020D1CF
S1131040EC00DD98EC02DD9AEC04DD9CDF8DCE1320
S1131050BCBD137F24037E10034F7E13DCDF963068
S1131060DF94DE96CC0172DD828D083CDE82EC00DA
S1131070380D398D1CBD1283C12B2608088D12BD75
S1131080110520F1C12D2608088D06BD110E20E59D
S1131090398D28BD1283C12A2608088D1EBD11175B
S11310A020F1C12F2608088D12BD113420E5C12579
S11310B02608088D06BD115020D939BD1283BD11F3
S11310C0BA2402201CBD126E240A3C86015818EC76
S11310D00038200DC1282619088D98C12926120828
S11310E0393CDE8209098C0147250DED00DF823889
S11310F039DE9435DE960C3986067E13DC0808ED5D
S113110000DF8238393CDE82EC02E30020EF3CDE73
S113111082EC02A30020E63CDE82A603E6013DDD6C
S113112090EC013DDB90D790A600E6033DDB9017E1
S1131130D69120C93CDE828D37187D0085270D8C21
S113114000002703C300014353C30001DE8220AD26
S11311503CDE828D1BDD8927137D00852704DC8717
S113116093897D008627054353C30001DE82208DC9
S1131170EC0027415FD785D786C610D790EC002AAC
S1131180037C0086A8022A037C0085EC002A054320
S113119053C30001DD87EC022A054353C300011841
S11311A04F5F18051859499387082403D387097A90
S11311B0009026EE3986087E13DC4F5FDD9097920F
S11311C09784E600C12D26057C0084200BC12B27C3
S11311D007BDFFC12436201308E600BDFFC124402B
S11311E02009DD90E600BDFFC12414C030D793DC94
S11311F0900505D39005D3920825202B1020E3DC1D
S1131200907D008427054353C300010D39188C8059
S1131210001826077D0084270220C786027E13DC7F
S113122086047E13DC2A0C37C62DBDFFAC33435332
S1131230C300017F0090CE12667F0091A3002505B4
S11312407C009120F7E30037D69127037C00907D42
S113125000902705CB30BDFFAC3308088C126E26F6
S1131260D8CB307EFFAC271003E80064000AE60008
S1131270BDFFBE240D17E601BDFFBE1624020C39C6
S1131280080D39E6002707C12022030820F539C1DB
S1131290222704C1272619173C08E6002714112623
S11312A0F83808E600112705BDFFAC20F5080D3914
S11312B00C39860A7E13DCBDFFB57B073926F83965
S11312C0BD1283BD105D24073CDE8BED00383986EA
S11312D0047E13DC72018FBD12832737BD128F2564
S11312E01BBD105D2511C13B2723C12C271CC13A0E
S11312F0272186047E13DC3CBD12253872018FBD84
S11313001283C13B2707C12C2609BD12B77F008F6A
S11313100820C47D008F2703BDFFB27E1011BD12CB
S1131320832731BD128F240AE600C13B262908BD5C
S11313301283BD126E2420860158DD8BDF8DBD1211
S1131340832706C13A2610DE8DBDFFA9CE0100BD5C
S113135012C0DE8D7E10114F7E13DC3CCE1366BDB1
S1131360FFAF387E10114578656375746520276971
S113137066272073746174656D656E740D0A00ECE4
S1131380059198262FD199262BEC074D271B919A6E
S113139026225D2714D19B261BEC094D270B919C1B
S11313A026125D2704D19D260BE602EE0331313C63
S11313B0DE8D3A39EE0026C7DE8D0C3913C70512CF
S11313C0D47072696E740013D205131E696E707541
S11313D0740013DA02135B69660000007D0039278C
S11313E003BDFFB2CE13FDBDFFAF16CE14053AEE1A
S11313F000BDFFAFBDFFB2DE80357E100345525203
S11314004F523A20001411141E14311444145D1464
S11314106953796E746178206572726F72004F75CA
S113142074206F662072616E67652076616C7565E5
S113143000496C6C6567616C2065787072657373C4
S1131440696F6E0043616C63756C617465207374BD
S113145061636B206F766572666C6F77005A657294
S11314606F20446976696465005072696E742073F4
S1131470746174656D656E74206572726F72003686
S1131480373CCE14B5BDFFAFDC90BDFFBBCE14BA64
S1131490BDFFAFDC92BDFFBBCE14C0BDFFAFDC947B
S11314A0BDFFBBCE14C6BDFFAFDC96BDFFBBBDFF09
S11314B0B2383332395552303D00205552313D0057
S10F14C0205552323D00205552333D00AF
S9030000FC
